{
  "contractName": "BinaryMerkleProof",
  "abi": [
    {
      "constant": true,
      "inputs": [
        {
          "name": "_root",
          "type": "bytes32"
        },
        {
          "name": "_proof",
          "type": "bytes"
        }
      ],
      "name": "verify",
      "outputs": [
        {
          "name": "",
          "type": "bool"
        }
      ],
      "payable": false,
      "stateMutability": "pure",
      "type": "function"
    },
    {
      "constant": true,
      "inputs": [
        {
          "name": "_proof",
          "type": "bytes"
        },
        {
          "name": "_index",
          "type": "uint256"
        },
        {
          "name": "_value",
          "type": "bytes32"
        }
      ],
      "name": "setBytes32Slice",
      "outputs": [],
      "payable": false,
      "stateMutability": "pure",
      "type": "function"
    },
    {
      "constant": true,
      "inputs": [
        {
          "name": "leaf",
          "type": "bytes32"
        },
        {
          "name": "siblings",
          "type": "bytes32[]"
        },
        {
          "name": "directions",
          "type": "bytes1[]"
        }
      ],
      "name": "constructProof",
      "outputs": [
        {
          "name": "r",
          "type": "bytes"
        }
      ],
      "payable": false,
      "stateMutability": "pure",
      "type": "function"
    },
    {
      "constant": true,
      "inputs": [],
      "name": "test",
      "outputs": [
        {
          "name": "",
          "type": "bool"
        }
      ],
      "payable": false,
      "stateMutability": "pure",
      "type": "function"
    }
  ],
  "bytecode": "0x6060604052341561000f57600080fd5b610d808061001e6000396000f300606060405260043610610062576000357c0100000000000000000000000000000000000000000000000000000000900463ffffffff168063258ae58214610067578063295c6e4d146100de57806331e7b06014610146578063f8a8fd6d1461025b575b600080fd5b6100c460048080356000191690602001909190803590602001908201803590602001908080601f0160208091040260200160405190810160405280939291908181526020018383808284378201915050505050509190505061027d565b604051808215151515815260200191505060405180910390f35b610144600480803590602001908201803590602001908080601f01602080910402602001604051908101604052809392919081815260200183838082843782019150505050505091908035906020019091908035600019169060200190919050506103dc565b005b6101e06004808035600019169060200190919080359060200190820180359060200190808060200260200160405190810160405280939291908181526020018383602002808284378201915050505050509190803590602001908201803590602001908080602002602001604051908101604052809392919081815260200183836020028082843782019150505050505091905050610424565b6040518080602001828103825283818151815260200191508051906020019080838360005b83811015610220578082015181840152602081019050610205565b50505050905090810190601f16801561024d5780820380516001836020036101000a031916815260200191505b509250505060405180910390f35b610263610521565b604051808215151515815260200191505060405180910390f35b6000806000806000610290866000610c4b565b9350602092505b85518310156103c55785838151811015156102ae57fe5b9060200101517f010000000000000000000000000000000000000000000000000000000000000090047f01000000000000000000000000000000000000000000000000000000000000000291506103088660018501610c4b565b905060007f010000000000000000000000000000000000000000000000000000000000000002827effffffffffffffffffffffffffffffffffffffffffffffffffffffffffffff19161461038957808460405180836000191660001916815260200182600019166000191681526020019250505060405180910390206103b8565b838160405180836000191660001916815260200182600019166000191681526020019250505060405180910390205b9350602183019250610297565b866000191684600019161494505050505092915050565b82601f83018151811015156103ed57fe5b9060200101517f01000000000000000000000000000000000000000000000000000000000000009050508082602085010152505050565b61042c610c97565b6000808351915081855114151561044257600080fd5b816021026020016040518059106104565750595b9080825280601f01601f19166020018201604052509250610479836000886103dc565b600090505b8181101561051857838181518110151561049457fe5b9060200190602002015183602183026020018151811015156104b257fe5b9060200101907effffffffffffffffffffffffffffffffffffffffffffffffffffffffffffff1916908160001a90535061050d836001602184026020010187848151811015156104fe57fe5b906020019060200201516103dc565b80600101905061047e565b50509392505050565b600061052b610cab565b610533610cd7565b61053b610d02565b6000610545610d2c565b61054d610d40565b610100604051908101604052807f6162630000000000000000000000000000000000000000000000000000000000600019166000191681526020017f6465660000000000000000000000000000000000000000000000000000000000600019166000191681526020017f6768690000000000000000000000000000000000000000000000000000000000600019166000191681526020017f6a6b6c0000000000000000000000000000000000000000000000000000000000600019166000191681526020017f6d6e6f0000000000000000000000000000000000000000000000000000000000600019166000191681526020017f7071720000000000000000000000000000000000000000000000000000000000600019166000191681526020017f7374750000000000000000000000000000000000000000000000000000000000600019166000191681526020017f7677780000000000000000000000000000000000000000000000000000000000600019166000191681525095506080604051908101604052808760006008811015156106e557fe5b60200201518860016008811015156106f957fe5b602002015160405180836000191660001916815260200182600019166000191681526020019250505060405180910390206000191660001916815260200187600260088110151561074657fe5b602002015188600360088110151561075a57fe5b60200201516040518083600019166000191681526020018260001916600019168152602001925050506040518091039020600019166000191681526020018760046008811015156107a757fe5b60200201518860056008811015156107bb57fe5b602002015160405180836000191660001916815260200182600019166000191681526020019250505060405180910390206000191660001916815260200187600660088110151561080857fe5b602002015188600760088110151561081c57fe5b6020020151604051808360001916600019168152602001826000191660001916815260200192505050604051809103902060001916600019168152509450604080519081016040528086600060048110151561087457fe5b602002015187600160048110151561088857fe5b60200201516040518083600019166000191681526020018260001916600019168152602001925050506040518091039020600019166000191681526020018660026004811015156108d557fe5b60200201518760036004811015156108e957fe5b602002015160405180836000191660001916815260200182600019166000191681526020019250505060405180910390206000191660001916815250935083600060028110151561093657fe5b602002015184600160028110151561094a57fe5b602002015160405180836000191660001916815260200182600019166000191681526020019250505060405180910390209250600360405180591061098c5750595b9080825280602002602001820160405250915060036040518059106109ae5750595b908082528060200260200182016040525090508560036008811015156109d057fe5b60200201518260008151811015156109e457fe5b90602001906020020190600019169081600019168152505060007f010000000000000000000000000000000000000000000000000000000000000002816000815181101515610a2f57fe5b906020019060200201907effffffffffffffffffffffffffffffffffffffffffffffffffffffffffffff191690817effffffffffffffffffffffffffffffffffffffffffffffffffffffffffffff191681525050846000600481101515610a9257fe5b6020020151826001815181101515610aa657fe5b90602001906020020190600019169081600019168152505060017f010000000000000000000000000000000000000000000000000000000000000002816001815181101515610af157fe5b906020019060200201907effffffffffffffffffffffffffffffffffffffffffffffffffffffffffffff191690817effffffffffffffffffffffffffffffffffffffffffffffffffffffffffffff191681525050836001600281101515610b5457fe5b6020020151826002815181101515610b6857fe5b90602001906020020190600019169081600019168152505060007f010000000000000000000000000000000000000000000000000000000000000002816002815181101515610bb357fe5b906020019060200201907effffffffffffffffffffffffffffffffffffffffffffffffffffffffffffff191690817effffffffffffffffffffffffffffffffffffffffffffffffffffffffffffff191681525050610c2e83610c29886002600881101515610c1d57fe5b60200201518585610424565b61027d565b1515610c3d5760009650610c42565b600196505b50505050505090565b600082601f8301815181101515610c5e57fe5b9060200101517f010000000000000000000000000000000000000000000000000000000000000090505081602084010151905092915050565b602060405190810160405280600081525090565b610100604051908101604052806008905b6000801916815260200190600190039081610cbc5790505090565b6080604051908101604052806004905b6000801916815260200190600190039081610ce75790505090565b60408051908101604052806002905b6000801916815260200190600190039081610d115790505090565b602060405190810160405280600081525090565b6020604051908101604052806000815250905600a165627a7a72305820d6e8b15e6e6397e134cbeed9b10a9d208717798d08884af146e9f6cf61265b9e0029",
  "source": "pragma solidity ^0.4.4;\n/**\n* @title a library to verify the proofs in a binary sha3/keccak merkle tree with 32-byte hash size\n* @author Christian Reitwiessner\n*/\n\n/**\n * This library can be used to verify a proof in a binary sha3/keccak\n * Merkle tree with 32 bytes hash size.\n * Proofs have the following form:\n * Leaf ( {0|1} Sibling )*\n * where Leaf is the 32 byte value whose presence in the tree is to be\n * verified, {0|1} is a single byte value signifying whether the previous\n * node is the left (0) or right (1) child node and Sibling is a 32 byte\n * value which is the other sibling.\n * Example:\n * \n *\n */\nlibrary BinaryMerkleProof {\n    /**\n    * @dev  verifies the merkle proof\n    *\n    * @param _root the root of the merkle tree\n    * @param _proof proof to be verified\n    *\n    * @return whether the proof was correct. returns a boolean value.\n    */\n    function verify(bytes32 _root, bytes _proof) pure public returns (bool) {\n        bytes32 v = getBytes32Slice(_proof, 0);\n        for (uint i = 32; i < _proof.length; i += 33) {\n            byte order = _proof[i];\n            bytes32 sibling = getBytes32Slice(_proof, i + 1);\n            v = (order == 0 ? keccak256(v, sibling) : keccak256(sibling, v));\n        }\n        return v == _root;\n    }\n\n    /**\n    * @dev  slice off 32 bytes from _proof starting at offset _index and return it\n    *\n    * @param _proof where we are slicing off from\n    * @param _index the offset at which to start slicing\n    *\n    * @return return the sliced-off 32-byte value\n    */\n    function getBytes32Slice(bytes _proof, uint _index) pure internal returns (bytes32 r) {\n        _proof[_index + 31]; // bounds checking\n        assembly {\n            r := mload(add(add(_proof, 0x20), _index))\n        }\n    }\n\n    /**\n    * @dev  sets a slice inside _proof to value _value starting at offset _index\n    *\n    * @param _proof the merkle proof\n    * @param _index the offset at which to set value _value\n    * @param _value the value to set inside the merkle proof\n    *\n    * @return \n    */\n    function setBytes32Slice(bytes _proof, uint _index, bytes32 _value) pure public {\n        _proof[_index + 31]; // bounds checking\n        assembly {\n            mstore(add(add(_proof, 0x20), _index), _value)\n        }\n    }\n\n    /**\n    * @dev  a test for the functions inside this module.\n    *\n    * @return returns a boolean value indicating whether the test was passed successfully.\n    */\n    function test() pure public returns (bool) {\n        bytes32[8] memory v = [\n            bytes32(\"abc\"), bytes32(\"def\"), bytes32(\"ghi\"), bytes32(\"jkl\"),\n            bytes32(\"mno\"), bytes32(\"pqr\"), bytes32(\"stu\"), bytes32(\"vwx\")\n        ];\n        bytes32[4] memory l1 = [keccak256(v[0], v[1]), keccak256(v[2], v[3]), keccak256(v[4], v[5]), keccak256(v[6], v[7])];\n        bytes32[2] memory l2 = [keccak256(l1[0], l1[1]), keccak256(l1[2], l1[3])];\n        bytes32 root = keccak256(l2[0], l2[1]);\n\n        bytes32[] memory siblings = new bytes32[](3);\n        byte[] memory directions = new byte[](3);\n        siblings[0] = v[3];\n        directions[0] = byte(0);\n        siblings[1] = l1[0];\n        directions[1] = byte(1);\n        siblings[2] = l2[1];\n        directions[2] = byte(0);\n        if (!verify(root, constructProof(v[2], siblings, directions)))\n            return false;\n        return true;\n    }\n\n    /**\n    * @dev  constructs a merkle proof for a given leaf, its siblings and their respective directions.\n    *\n    * @param leaf the leaf for which we are constructing a proof.\n    * @param siblings the siblings of the leaf.\n    * @param directions indicates whether the siblings are to the left or to the right of the leaf.\n    *\n    * @return returns the merkle proof.\n    */\n    function constructProof(bytes32 leaf, bytes32[] siblings, byte[] directions) pure public returns (bytes r) {\n        uint len = directions.length;\n        require (siblings.length == len);\n        r = new bytes(32 + 33 * len);\n        setBytes32Slice(r, 0, leaf);\n        for (uint i = 0; i < len; ++i) {\n            r[32 + i * 33] = directions[i];\n            setBytes32Slice(r, 32 + i * 33 + 1, siblings[i]);\n        }\n    }\n}\n",
  "sourcePath": "/Users/sinahab/dev/truebit/sinahab/scrypt-interactive/contracts/MerkleProof.sol",
  "compiler": {
    "name": "solc",
    "version": "0.4.18+commit.9cf6e910.Emscripten.clang"
  },
  "schemaVersion": "1.0.1",
  "updatedAt": "2017-11-19T18:56:28.909Z"
}