{
  "contractName": "ClaimManager",
  "abi": [
    {
      "constant": false,
      "inputs": [
        {
          "name": "amount",
          "type": "uint256"
        }
      ],
      "name": "withdrawDeposit",
      "outputs": [
        {
          "name": "",
          "type": "uint256"
        }
      ],
      "payable": false,
      "stateMutability": "nonpayable",
      "type": "function"
    },
    {
      "constant": false,
      "inputs": [
        {
          "name": "claimID",
          "type": "uint256"
        },
        {
          "name": "winner",
          "type": "address"
        },
        {
          "name": "loser",
          "type": "address"
        }
      ],
      "name": "claimDecided",
      "outputs": [],
      "payable": false,
      "stateMutability": "nonpayable",
      "type": "function"
    },
    {
      "constant": false,
      "inputs": [],
      "name": "makeDeposit",
      "outputs": [
        {
          "name": "",
          "type": "uint256"
        }
      ],
      "payable": true,
      "stateMutability": "payable",
      "type": "function"
    },
    {
      "constant": true,
      "inputs": [],
      "name": "jackpot",
      "outputs": [
        {
          "name": "",
          "type": "uint256"
        }
      ],
      "payable": false,
      "stateMutability": "view",
      "type": "function"
    },
    {
      "constant": true,
      "inputs": [],
      "name": "owner",
      "outputs": [
        {
          "name": "",
          "type": "address"
        }
      ],
      "payable": false,
      "stateMutability": "view",
      "type": "function"
    },
    {
      "constant": false,
      "inputs": [
        {
          "name": "claimID",
          "type": "uint256"
        }
      ],
      "name": "challengeClaim",
      "outputs": [],
      "payable": false,
      "stateMutability": "nonpayable",
      "type": "function"
    },
    {
      "constant": true,
      "inputs": [],
      "name": "getJackpot",
      "outputs": [
        {
          "name": "",
          "type": "uint256"
        }
      ],
      "payable": false,
      "stateMutability": "view",
      "type": "function"
    },
    {
      "constant": false,
      "inputs": [],
      "name": "donateToJackpot",
      "outputs": [
        {
          "name": "",
          "type": "uint256"
        }
      ],
      "payable": true,
      "stateMutability": "payable",
      "type": "function"
    },
    {
      "constant": false,
      "inputs": [
        {
          "name": "_plaintext",
          "type": "bytes"
        },
        {
          "name": "_blockHash",
          "type": "bytes"
        },
        {
          "name": "claimant",
          "type": "address"
        }
      ],
      "name": "checkScrypt",
      "outputs": [
        {
          "name": "",
          "type": "uint256"
        }
      ],
      "payable": false,
      "stateMutability": "nonpayable",
      "type": "function"
    },
    {
      "constant": true,
      "inputs": [
        {
          "name": "who",
          "type": "address"
        }
      ],
      "name": "getDeposit",
      "outputs": [
        {
          "name": "",
          "type": "uint256"
        }
      ],
      "payable": false,
      "stateMutability": "view",
      "type": "function"
    },
    {
      "constant": false,
      "inputs": [
        {
          "name": "claimID",
          "type": "uint256"
        }
      ],
      "name": "checkClaimSuccessful",
      "outputs": [],
      "payable": false,
      "stateMutability": "nonpayable",
      "type": "function"
    },
    {
      "constant": true,
      "inputs": [
        {
          "name": "",
          "type": "address"
        }
      ],
      "name": "deposits",
      "outputs": [
        {
          "name": "",
          "type": "uint256"
        }
      ],
      "payable": false,
      "stateMutability": "view",
      "type": "function"
    },
    {
      "inputs": [
        {
          "name": "_dogeRelayAddress",
          "type": "address"
        },
        {
          "name": "_scryptVerifierAddress",
          "type": "address"
        }
      ],
      "payable": false,
      "stateMutability": "nonpayable",
      "type": "constructor"
    },
    {
      "payable": true,
      "stateMutability": "payable",
      "type": "fallback"
    },
    {
      "anonymous": false,
      "inputs": [
        {
          "indexed": false,
          "name": "claimID",
          "type": "uint256"
        },
        {
          "indexed": false,
          "name": "account",
          "type": "address"
        },
        {
          "indexed": false,
          "name": "amount",
          "type": "uint256"
        }
      ],
      "name": "DepositBonded",
      "type": "event"
    },
    {
      "anonymous": false,
      "inputs": [
        {
          "indexed": false,
          "name": "claimID",
          "type": "uint256"
        },
        {
          "indexed": false,
          "name": "account",
          "type": "address"
        },
        {
          "indexed": false,
          "name": "amount",
          "type": "uint256"
        }
      ],
      "name": "DepositUnbonded",
      "type": "event"
    },
    {
      "anonymous": false,
      "inputs": [
        {
          "indexed": false,
          "name": "claimID",
          "type": "uint256"
        }
      ],
      "name": "ClaimCreated",
      "type": "event"
    },
    {
      "anonymous": false,
      "inputs": [
        {
          "indexed": false,
          "name": "who",
          "type": "address"
        },
        {
          "indexed": false,
          "name": "amount",
          "type": "uint256"
        }
      ],
      "name": "DepositMade",
      "type": "event"
    },
    {
      "anonymous": false,
      "inputs": [
        {
          "indexed": false,
          "name": "who",
          "type": "address"
        },
        {
          "indexed": false,
          "name": "amount",
          "type": "uint256"
        }
      ],
      "name": "DepositWithdrawn",
      "type": "event"
    },
    {
      "anonymous": false,
      "inputs": [
        {
          "indexed": false,
          "name": "amount",
          "type": "uint256"
        }
      ],
      "name": "JackpotIncreased",
      "type": "event"
    }
  ],
  "bytecode": "0x6060604052600060035560016004556028600555341561001e57600080fd5b60405160408061153e8339810160405280805190602001909190805190602001909190505033600260006101000a81548173ffffffffffffffffffffffffffffffffffffffff021916908373ffffffffffffffffffffffffffffffffffffffff160217905550600060018190555033600260006101000a81548173ffffffffffffffffffffffffffffffffffffffff021916908373ffffffffffffffffffffffffffffffffffffffff16021790555081600660006101000a81548173ffffffffffffffffffffffffffffffffffffffff021916908373ffffffffffffffffffffffffffffffffffffffff16021790555080600a60006101000a81548173ffffffffffffffffffffffffffffffffffffffff021916908373ffffffffffffffffffffffffffffffffffffffff16021790555050506113de806101606000396000f3006060604052600436106100ba576000357c0100000000000000000000000000000000000000000000000000000000900463ffffffff16806333289a46146100c55780633ae597fe146100fc57806340732c891461015d5780636b31ee011461017b5780638da5cb5b146101a457806392c824d8146101f95780639329066c1461021c578063bffb511d14610245578063c166646314610263578063e1254fba14610336578063f350351f14610383578063fc7e286d146103a6575b6100c26103f3565b50005b34156100d057600080fd5b6100e66004808035906020019091905050610537565b6040518082815260200191505060405180910390f35b341561010757600080fd5b61015b600480803590602001909190803573ffffffffffffffffffffffffffffffffffffffff1690602001909190803573ffffffffffffffffffffffffffffffffffffffff16906020019091905050610709565b005b6101656103f3565b6040518082815260200191505060405180910390f35b341561018657600080fd5b61018e610a34565b6040518082815260200191505060405180910390f35b34156101af57600080fd5b6101b7610a3a565b604051808273ffffffffffffffffffffffffffffffffffffffff1673ffffffffffffffffffffffffffffffffffffffff16815260200191505060405180910390f35b341561020457600080fd5b61021a6004808035906020019091905050610a60565b005b341561022757600080fd5b61022f610b55565b6040518082815260200191505060405180910390f35b61024d610b5f565b6040518082815260200191505060405180910390f35b341561026e57600080fd5b610320600480803590602001908201803590602001908080601f0160208091040260200160405190810160405280939291908181526020018383808284378201915050505050509190803590602001908201803590602001908080601f0160208091040260200160405190810160405280939291908181526020018383808284378201915050505050509190803573ffffffffffffffffffffffffffffffffffffffff16906020019091905050610bbb565b6040518082815260200191505060405180910390f35b341561034157600080fd5b61036d600480803573ffffffffffffffffffffffffffffffffffffffff16906020019091905050610d77565b6040518082815260200191505060405180910390f35b341561038e57600080fd5b6103a46004808035906020019091905050610dbf565b005b34156103b157600080fd5b6103dd600480803573ffffffffffffffffffffffffffffffffffffffff16906020019091905050610eba565b6040518082815260200191505060405180910390f35b6000610446346000803373ffffffffffffffffffffffffffffffffffffffff1673ffffffffffffffffffffffffffffffffffffffff16815260200190815260200160002054610ed290919063ffffffff16565b6000803373ffffffffffffffffffffffffffffffffffffffff1673ffffffffffffffffffffffffffffffffffffffff168152602001908152602001600020819055507fd15c9547ea5c06670c0010ce19bc32d54682a4b3801ece7f3ab0c3f17106b4bb3334604051808373ffffffffffffffffffffffffffffffffffffffff1673ffffffffffffffffffffffffffffffffffffffff1681526020018281526020019250505060405180910390a16000803373ffffffffffffffffffffffffffffffffffffffff1673ffffffffffffffffffffffffffffffffffffffff16815260200190815260200160002054905090565b6000816000803373ffffffffffffffffffffffffffffffffffffffff1673ffffffffffffffffffffffffffffffffffffffff1681526020019081526020016000205411151561058557600080fd5b6105d6826000803373ffffffffffffffffffffffffffffffffffffffff1673ffffffffffffffffffffffffffffffffffffffff16815260200190815260200160002054610ef090919063ffffffff16565b6000803373ffffffffffffffffffffffffffffffffffffffff1673ffffffffffffffffffffffffffffffffffffffff168152602001908152602001600020819055503373ffffffffffffffffffffffffffffffffffffffff166108fc839081150290604051600060405180830381858888f19350505050151561065857600080fd5b7f4482101800a5c2e900f4156e57e05e19ffd7b366cde579553d723fd3abb2180e3383604051808373ffffffffffffffffffffffffffffffffffffffff1673ffffffffffffffffffffffffffffffffffffffff1681526020018281526020019250505060405180910390a16000803373ffffffffffffffffffffffffffffffffffffffff1673ffffffffffffffffffffffffffffffffffffffff168152602001908152602001600020549050919050565b6000806000600a60009054906101000a900473ffffffffffffffffffffffffffffffffffffffff168073ffffffffffffffffffffffffffffffffffffffff163373ffffffffffffffffffffffffffffffffffffffff1614151561076b57600080fd5b6009600088815260200190815260200160002093508360070160008673ffffffffffffffffffffffffffffffffffffffff1673ffffffffffffffffffffffffffffffffffffffff1681526020019081526020016000205492508360070160008673ffffffffffffffffffffffffffffffffffffffff1673ffffffffffffffffffffffffffffffffffffffff1681526020019081526020016000206000905561085d838560070160008973ffffffffffffffffffffffffffffffffffffffff1673ffffffffffffffffffffffffffffffffffffffff16815260200190815260200160002054610ed290919063ffffffff16565b8460070160008873ffffffffffffffffffffffffffffffffffffffff1673ffffffffffffffffffffffffffffffffffffffff168152602001908152602001600020819055508473ffffffffffffffffffffffffffffffffffffffff168460020160009054906101000a900473ffffffffffffffffffffffffffffffffffffffff1673ffffffffffffffffffffffffffffffffffffffff16141561099957600091505b83600101548210156109945761094e846000015485600601600085815260200190815260200160002060009054906101000a900473ffffffffffffffffffffffffffffffffffffffff16610f09565b5083600601600083815260200190815260200160002060006101000a81549073ffffffffffffffffffffffffffffffffffffffff021916905581806001019250506108ff565b610a2b565b8573ffffffffffffffffffffffffffffffffffffffff168460020160009054906101000a900473ffffffffffffffffffffffffffffffffffffffff1673ffffffffffffffffffffffffffffffffffffffff161415610a2a5783600601600083815260200190815260200160002060006101000a81549073ffffffffffffffffffffffffffffffffffffffff02191690555b5b50505050505050565b60015481565b600260009054906101000a900473ffffffffffffffffffffffffffffffffffffffff1681565b60006004546000803373ffffffffffffffffffffffffffffffffffffffff1673ffffffffffffffffffffffffffffffffffffffff1681526020019081526020016000205410151515610ab157600080fd5b610abe82336004546110bd565b506009600083815260200190815260200160002090503381600601600080815260200190815260200160002060006101000a81548173ffffffffffffffffffffffffffffffffffffffff021916908373ffffffffffffffffffffffffffffffffffffffff160217905550610b4060018260010154610ed290919063ffffffff16565b81600101819055504381600501819055505050565b6000600154905090565b6000610b7634600154610ed290919063ffffffff16565b6001819055507f8146a5b13216b9ff873a0bec62f51b6c4c619244d14f4d8b9b0eb8741dbc48af346040518082815260200191505060405180910390a1600154905090565b600080600660009054906101000a900473ffffffffffffffffffffffffffffffffffffffff168073ffffffffffffffffffffffffffffffffffffffff163373ffffffffffffffffffffffffffffffffffffffff16141515610c1b57600080fd5b6004546000808673ffffffffffffffffffffffffffffffffffffffff1673ffffffffffffffffffffffffffffffffffffffff1681526020019081526020016000205410151515610c6a57600080fd5b6009600060035481526020019081526020016000209150838260020160006101000a81548173ffffffffffffffffffffffffffffffffffffffff021916908373ffffffffffffffffffffffffffffffffffffffff16021790555085826003019080519060200190610cdc92919061130d565b5084826004019080519060200190610cf592919061130d565b5060008260010181905550438260050181905550610d18600354856004546110bd565b507f3106ccab17a8e74387554d8ef984d75d6c305d51cbe629c038b0bec803c1aad36003546040518082815260200191505060405180910390a1610d686001600354610ed290919063ffffffff16565b50600354925050509392505050565b60008060008373ffffffffffffffffffffffffffffffffffffffff1673ffffffffffffffffffffffffffffffffffffffff168152602001908152602001600020549050919050565b600080600960008481526020019081526020016000209150600554826005015443031115610eb557610e1982600001548360020160009054906101000a900473ffffffffffffffffffffffffffffffffffffffff16610f09565b50600090505b8160010154811015610eb457610e6e826000015483600601600084815260200190815260200160002060009054906101000a900473ffffffffffffffffffffffffffffffffffffffff16610f09565b5081600601600082815260200190815260200160002060006101000a81549073ffffffffffffffffffffffffffffffffffffffff02191690558080600101915050610e1f565b5b505050565b60006020528060005260406000206000915090505481565b6000808284019050838110151515610ee657fe5b8091505092915050565b6000828211151515610efe57fe5b818303905092915050565b60008060006009600086815260200190815260200160002091508160070160008573ffffffffffffffffffffffffffffffffffffffff1673ffffffffffffffffffffffffffffffffffffffff1681526020019081526020016000205490508160070160008573ffffffffffffffffffffffffffffffffffffffff1673ffffffffffffffffffffffffffffffffffffffff16815260200190815260200160002060009055610ffd816000808773ffffffffffffffffffffffffffffffffffffffff1673ffffffffffffffffffffffffffffffffffffffff16815260200190815260200160002054610ed290919063ffffffff16565b6000808673ffffffffffffffffffffffffffffffffffffffff1673ffffffffffffffffffffffffffffffffffffffff168152602001908152602001600020819055507f44c8a24da6f48938ce6ee551c058529a48695baf9b754bf3184fc5f065878b10858583604051808481526020018373ffffffffffffffffffffffffffffffffffffffff1673ffffffffffffffffffffffffffffffffffffffff168152602001828152602001935050505060405180910390a1809250505092915050565b600080600960008681526020019081526020016000209050826000803373ffffffffffffffffffffffffffffffffffffffff1673ffffffffffffffffffffffffffffffffffffffff168152602001908152602001600020541015151561112257600080fd5b611173836000808773ffffffffffffffffffffffffffffffffffffffff1673ffffffffffffffffffffffffffffffffffffffff16815260200190815260200160002054610ef090919063ffffffff16565b6000808673ffffffffffffffffffffffffffffffffffffffff1673ffffffffffffffffffffffffffffffffffffffff16815260200190815260200160002081905550611209838260070160008773ffffffffffffffffffffffffffffffffffffffff1673ffffffffffffffffffffffffffffffffffffffff16815260200190815260200160002054610ed290919063ffffffff16565b8160070160008673ffffffffffffffffffffffffffffffffffffffff1673ffffffffffffffffffffffffffffffffffffffff168152602001908152602001600020819055507f5552f672574aa03647978f5573eebe6545f711fc59f43558a820e8d251c34661858585604051808481526020018373ffffffffffffffffffffffffffffffffffffffff1673ffffffffffffffffffffffffffffffffffffffff168152602001828152602001935050505060405180910390a18060070160008573ffffffffffffffffffffffffffffffffffffffff1673ffffffffffffffffffffffffffffffffffffffff168152602001908152602001600020549150509392505050565b828054600181600116156101000203166002900490600052602060002090601f016020900481019282601f1061134e57805160ff191683800117855561137c565b8280016001018555821561137c579182015b8281111561137b578251825591602001919060010190611360565b5b509050611389919061138d565b5090565b6113af91905b808211156113ab576000816000905550600101611393565b5090565b905600a165627a7a72305820ba8de2ec67187aa6eb066b6b8c146edd647453fd3044009757303431e59980640029",
  "source": "pragma solidity ^0.4.0;\n\nimport {DepositsManager} from './DepositsManager.sol';\nimport {ScryptVerifier} from \"./scryptVerifier.sol\";\n\n// ClaimManager: queues a sequence of challengers to play with a claimant.\n\ncontract ClaimManager is DepositsManager {\n    uint private numClaims = 0;     // index as key for the claims mapping.\n    uint private minDeposit = 1;    // TODO: what should the minimum deposit be?\n    uint private challengeTimeout = 40;  // claimant needs to unchallenged for 40 blocks, before a blockHash is deemed correct.\n\n    address dogeRelayAddress;\n    address receiver;\n    address scryptVerifierAddress;\n\n    event DepositBonded(uint claimID, address account, uint amount);\n    event DepositUnbonded(uint claimID, address account, uint amount);\n    event ClaimCreated(uint claimID);\n\n    struct ScryptClaim {\n        uint id;\n        uint numChallengers; // index to key challengers mapping.\n        address claimant;\n        bytes plaintext;    // the plaintext Dogecoin block header.\n        bytes blockHash;    // the Dogecoin blockhash.\n        uint lastChallengeAt; // the block number at which the last challenge came in.\n        mapping (uint => address) challengers;      // all current challengers.\n        mapping (address => uint) bondedDeposits;   // all deposits bonded in this claim.\n    }\n\n    mapping(uint => ScryptClaim) private claims;\n    \n    modifier onlyBy(address _account) {\n        require(msg.sender == _account);\n        _;\n    }\n\n    ScryptVerifier sv;\n \n    // @dev – the constructor\n    function ClaimManager(address _dogeRelayAddress, address _scryptVerifierAddress) public {\n        owner = msg.sender;\n        dogeRelayAddress = _dogeRelayAddress;\n        sv = ScryptVerifier(_scryptVerifierAddress);\n    }\n\n    // @dev – locks up part of the a user's deposit into a claim.\n    // @param claimID – the claim id.\n    // @param account – the user's address.\n    // @param amount – the amount of deposit to lock up. \n    // @return – the user's deposit bonded for the claim.\n    function bondDeposit(uint claimID, address account, uint amount) private returns (uint) {\n        ScryptClaim storage claim = claims[claimID];\n        require(deposits[msg.sender] >= amount);\n        deposits[account] = deposits[account].sub(amount);\n        claim.bondedDeposits[account] = claim.bondedDeposits[account].add(amount);\n        DepositBonded(claimID, account, amount);\n        return claim.bondedDeposits[account];\n  }\n    \n    // @dev – unlocks a user's bonded deposits from a claim.\n    // @param claimID – the claim id.\n    // @param account – the user's address.\n    // @return – the user's deposit which was unbonded from the claim.\n    function unbondDeposit(uint claimID, address account) private returns (uint) {\n      ScryptClaim storage claim = claims[claimID];\n      uint bondedDeposit = claim.bondedDeposits[account];\n      delete claim.bondedDeposits[account];\n      deposits[account] = deposits[account].add(bondedDeposit);\n      DepositUnbonded(claimID, account, bondedDeposit);\n      \n      return bondedDeposit;\n    }\n \n    // @dev – check whether a DogeCoin blockHash was calculated correctly from the plaintext block header.\n    // only callable by the DogeRelay contract.\n    // @param _plaintext – the plaintext blockHeader.\n    // @param _blockHash – the blockHash.\n    // @param claimant – the address of the Dogecoin block submitter.\n    function checkScrypt(bytes _plaintext, bytes _blockHash, address claimant) onlyBy(dogeRelayAddress) public returns (uint) {\n        require(deposits[claimant] >= minDeposit);\n\n        ScryptClaim storage claim = claims[numClaims];\n        claim.claimant = claimant;\n        claim.plaintext = _plaintext;\n        claim.blockHash = _blockHash;\n        claim.numChallengers = 0;\n        claim.lastChallengeAt = block.number;\n\n        bondDeposit(numClaims, claimant, minDeposit); \n        ClaimCreated(numClaims);\n\n        numClaims.add(1);\n        return numClaims;\n    }\n\n    // @dev – challenge an existing Scrypt claim.\n    // triggers a downstream claim computation on the scryptVerifier contract\n    // where the claimant & the challenger will immediately begin playing a verification.\n    //\n    // @param claimID – the claim ID.\n    function challengeClaim(uint claimID) public {\n        require(deposits[msg.sender] >= minDeposit);\n        bondDeposit(claimID, msg.sender, minDeposit);\n\n        ScryptClaim storage claim = claims[claimID];\n        claim.challengers[0] = msg.sender;\n        claim.numChallengers = claim.numChallengers.add(1);\n        claim.lastChallengeAt = block.number;\n\n        //sv.claimComputation(msg.receiver, 0); // TODO: fix this.\n    }\n\n    // @dev – called when a verification game has ended.\n    // only callable by the scryptVerifier contract.\n    //\n    // @param claimID – the claim ID.\n    // @param winner – winner of the verification game.\n    // @param loser – loser of the verification game.\n    function claimDecided(uint claimID, address winner, address loser) onlyBy(address(sv)) public {\n        ScryptClaim storage claim = claims[claimID];\n\n        // reward the winner, with the loser's bonded deposit.\n        uint depositToTransfer = claim.bondedDeposits[loser];\n        delete claim.bondedDeposits[loser];\n        claim.bondedDeposits[winner] = claim.bondedDeposits[winner].add(depositToTransfer);\n        \n        if (claim.claimant == loser) {\n            // the claim is over.\n\n            // unlock the deposits of all challengers\n            for (uint index = 0; index < claim.numChallengers; index++) {\n                unbondDeposit(claim.id, claim.challengers[index]);\n                delete claim.challengers[index];\n            }\n        } else if (claim.claimant == winner) {\n            // the claim continues.\n            delete claim.challengers[index];\n        }\n    }\n\n    // @dev – check whether a claim has successfully withstood all challenges.\n    // if successful, it will trigger a callback to the DogeRelay contract,\n    // notifying it that the Scrypt blockhash was correctly calculated.\n    // \n    // @param claimID – the claim ID.\n    function checkClaimSuccessful(uint claimID) public {\n        ScryptClaim storage claim = claims[claimID];\n        \n        // TODO: check that there are no on-going challenges.\n\n        // check that claim has gone unchallenged for the required number of blocks.\n        if (block.number - claim.lastChallengeAt > challengeTimeout) {\n            // the claim is successful.\n\n            unbondDeposit(claim.id, claim.claimant);\n\n            // there should be no one in this for loop..\n            for (uint index = 0; index < claim.numChallengers; index++) {\n                unbondDeposit(claim.id, claim.challengers[index]);\n                delete claim.challengers[index];\n            }\n\n            // TODO: callback to the DogeRelay.\n            // DogeRelay.scryptVerified(claim.plaintext, claim.blockHash);\n        }\n    }\n}\n\n",
  "sourcePath": "/Users/sinahab/dev/truebit/sinahab/scrypt-interactive/contracts/claimManager.sol",
  "compiler": {
    "name": "solc",
    "version": "0.4.18+commit.9cf6e910.Emscripten.clang"
  },
  "schemaVersion": "1.0.1",
  "updatedAt": "2017-11-19T18:56:28.920Z"
}