{
  "contractName": "ClaimManager",
  "abi": [
    {
      "constant": false,
      "inputs": [
        {
          "name": "amount",
          "type": "uint256"
        }
      ],
      "name": "withdrawDeposit",
      "outputs": [
        {
          "name": "",
          "type": "uint256"
        }
      ],
      "payable": false,
      "stateMutability": "nonpayable",
      "type": "function"
    },
    {
      "constant": false,
      "inputs": [
        {
          "name": "claimID",
          "type": "uint256"
        },
        {
          "name": "winner",
          "type": "address"
        },
        {
          "name": "loser",
          "type": "address"
        }
      ],
      "name": "claimDecided",
      "outputs": [],
      "payable": false,
      "stateMutability": "nonpayable",
      "type": "function"
    },
    {
      "constant": false,
      "inputs": [],
      "name": "makeDeposit",
      "outputs": [
        {
          "name": "",
          "type": "uint256"
        }
      ],
      "payable": true,
      "stateMutability": "payable",
      "type": "function"
    },
    {
      "constant": true,
      "inputs": [],
      "name": "jackpot",
      "outputs": [
        {
          "name": "",
          "type": "uint256"
        }
      ],
      "payable": false,
      "stateMutability": "view",
      "type": "function"
    },
    {
      "constant": true,
      "inputs": [],
      "name": "owner",
      "outputs": [
        {
          "name": "",
          "type": "address"
        }
      ],
      "payable": false,
      "stateMutability": "view",
      "type": "function"
    },
    {
      "constant": false,
      "inputs": [
        {
          "name": "claimID",
          "type": "uint256"
        }
      ],
      "name": "challengeClaim",
      "outputs": [],
      "payable": false,
      "stateMutability": "nonpayable",
      "type": "function"
    },
    {
      "constant": true,
      "inputs": [],
      "name": "getJackpot",
      "outputs": [
        {
          "name": "",
          "type": "uint256"
        }
      ],
      "payable": false,
      "stateMutability": "view",
      "type": "function"
    },
    {
      "constant": false,
      "inputs": [],
      "name": "donateToJackpot",
      "outputs": [
        {
          "name": "",
          "type": "uint256"
        }
      ],
      "payable": true,
      "stateMutability": "payable",
      "type": "function"
    },
    {
      "constant": false,
      "inputs": [
        {
          "name": "_plaintext",
          "type": "bytes"
        },
        {
          "name": "_blockHash",
          "type": "bytes"
        },
        {
          "name": "claimant",
          "type": "address"
        }
      ],
      "name": "checkScrypt",
      "outputs": [
        {
          "name": "",
          "type": "uint256"
        }
      ],
      "payable": false,
      "stateMutability": "nonpayable",
      "type": "function"
    },
    {
      "constant": true,
      "inputs": [
        {
          "name": "who",
          "type": "address"
        }
      ],
      "name": "getDeposit",
      "outputs": [
        {
          "name": "",
          "type": "uint256"
        }
      ],
      "payable": false,
      "stateMutability": "view",
      "type": "function"
    },
    {
      "constant": false,
      "inputs": [
        {
          "name": "claimID",
          "type": "uint256"
        }
      ],
      "name": "runNextVerificationGame",
      "outputs": [],
      "payable": false,
      "stateMutability": "nonpayable",
      "type": "function"
    },
    {
      "constant": false,
      "inputs": [
        {
          "name": "claimID",
          "type": "uint256"
        }
      ],
      "name": "checkClaimSuccessful",
      "outputs": [
        {
          "name": "",
          "type": "uint256"
        }
      ],
      "payable": false,
      "stateMutability": "nonpayable",
      "type": "function"
    },
    {
      "inputs": [
        {
          "name": "",
          "type": "address"
        },
        {
          "name": "_scryptVerifierAddress",
          "type": "address"
        }
      ],
      "payable": false,
      "stateMutability": "view",
      "type": "function",
      "constant": true,
      "name": "deposits",
      "outputs": [
        {
          "name": "",
          "type": "uint256"
        }
      ]
    },
    {
      "payable": false,
      "stateMutability": "nonpayable",
      "type": "constructor",
      "inputs": [
        {
          "name": "_dogeRelayAddress",
          "type": "address"
        },
        {
          "name": "_scryptVerifierAddress",
          "type": "address"
        }
      ]
    },
    {
      "anonymous": false,
      "inputs": [
        {
          "indexed": false,
          "name": "claimID",
          "type": "uint256"
        },
        {
          "indexed": false,
          "name": "account",
          "type": "address"
        },
        {
          "indexed": false,
          "name": "amount",
          "type": "uint256"
        }
      ],
      "name": "DepositBonded",
      "type": "fallback",
      "payable": true,
      "stateMutability": "payable"
    },
    {
      "anonymous": false,
      "inputs": [
        {
          "indexed": false,
          "name": "claimID",
          "type": "uint256"
        },
        {
          "indexed": false,
          "name": "account",
          "type": "address"
        },
        {
          "indexed": false,
          "name": "amount",
          "type": "uint256"
        }
      ],
      "name": "DepositBonded",
      "type": "event"
    },
    {
      "anonymous": false,
      "inputs": [
        {
          "indexed": false,
          "name": "claimID",
          "type": "uint256"
        },
        {
          "indexed": false,
          "name": "account",
          "type": "address"
        },
        {
          "indexed": false,
          "name": "amount",
          "type": "uint256"
        }
      ],
      "name": "DepositUnbonded",
      "type": "event"
    },
    {
      "anonymous": false,
      "inputs": [
        {
          "indexed": false,
          "name": "claimID",
          "type": "uint256"
        },
        {
          "indexed": false,
          "name": "claimant",
          "type": "address"
        },
        {
          "indexed": false,
          "name": "plaintext",
          "type": "bytes"
        },
        {
          "indexed": false,
          "name": "blockHash",
          "type": "bytes"
        }
      ],
      "name": "ClaimCreated",
      "type": "event"
    },
    {
      "anonymous": false,
      "inputs": [
        {
          "indexed": false,
          "name": "claimID",
          "type": "uint256"
        },
        {
          "indexed": false,
          "name": "challenger",
          "type": "address"
        }
      ],
      "name": "ClaimChallenged",
      "type": "event"
    },
    {
      "anonymous": false,
      "inputs": [
        {
          "indexed": false,
          "name": "claimID",
          "type": "uint256"
        },
        {
          "indexed": false,
          "name": "claimant",
          "type": "address"
        },
        {
          "indexed": false,
          "name": "challenger",
          "type": "address"
        }
      ],
      "name": "ClaimVerificationGameStarted",
      "type": "event"
    },
    {
      "anonymous": false,
      "inputs": [
        {
          "indexed": false,
          "name": "claimID",
          "type": "uint256"
        },
        {
          "indexed": false,
          "name": "winner",
          "type": "address"
        },
        {
          "indexed": false,
          "name": "loser",
          "type": "address"
        }
      ],
      "name": "ClaimDecided",
      "type": "event"
    },
    {
      "anonymous": false,
      "inputs": [
        {
          "indexed": false,
          "name": "claimID",
          "type": "uint256"
        },
        {
          "indexed": false,
          "name": "claimant",
          "type": "address"
        },
        {
          "indexed": false,
          "name": "plaintext",
          "type": "bytes"
        },
        {
          "indexed": false,
          "name": "blockHash",
          "type": "bytes"
        }
      ],
      "name": "ClaimSuccessful",
      "type": "event"
    },
    {
      "anonymous": false,
      "inputs": [
        {
          "indexed": false,
          "name": "who",
          "type": "address"
        },
        {
          "indexed": false,
          "name": "amount",
          "type": "uint256"
        }
      ],
      "name": "DepositMade",
      "type": "event"
    },
    {
      "anonymous": false,
      "inputs": [
        {
          "indexed": false,
          "name": "who",
          "type": "address"
        },
        {
          "indexed": false,
          "name": "amount",
          "type": "uint256"
        }
      ],
      "name": "DepositWithdrawn",
      "type": "event"
    },
    {
      "anonymous": false,
      "inputs": [
        {
          "indexed": false,
          "name": "amount",
          "type": "uint256"
        }
      ],
      "name": "JackpotIncreased",
      "type": "event"
    }
  ],
  "bytecode": "0x60606040526000600355600160045560146005556028600655341561002357600080fd5b604051604080611e6c8339810160405280805190602001909190805190602001909190505033600260006101000a81548173ffffffffffffffffffffffffffffffffffffffff021916908373ffffffffffffffffffffffffffffffffffffffff160217905550600060018190555033600260006101000a81548173ffffffffffffffffffffffffffffffffffffffff021916908373ffffffffffffffffffffffffffffffffffffffff16021790555081600760006101000a81548173ffffffffffffffffffffffffffffffffffffffff021916908373ffffffffffffffffffffffffffffffffffffffff16021790555080600b60006101000a81548173ffffffffffffffffffffffffffffffffffffffff021916908373ffffffffffffffffffffffffffffffffffffffff1602179055505050611d07806101656000396000f3006060604052600436106100c5576000357c0100000000000000000000000000000000000000000000000000000000900463ffffffff16806333289a46146100d05780633ae597fe1461010757806340732c89146101685780636b31ee01146101865780638da5cb5b146101af57806392c824d8146102045780639329066c14610227578063bffb511d14610250578063c16664631461026e578063e1254fba14610341578063e32250de1461038e578063f350351f146103b1578063fc7e286d146103d4575b6100cd610421565b50005b34156100db57600080fd5b6100f16004808035906020019091905050610565565b6040518082815260200191505060405180910390f35b341561011257600080fd5b610166600480803590602001909190803573ffffffffffffffffffffffffffffffffffffffff1690602001909190803573ffffffffffffffffffffffffffffffffffffffff16906020019091905050610737565b005b610170610421565b6040518082815260200191505060405180910390f35b341561019157600080fd5b610199610b80565b6040518082815260200191505060405180910390f35b34156101ba57600080fd5b6101c2610b86565b604051808273ffffffffffffffffffffffffffffffffffffffff1673ffffffffffffffffffffffffffffffffffffffff16815260200191505060405180910390f35b341561020f57600080fd5b6102256004808035906020019091905050610bac565b005b341561023257600080fd5b61023a610d2e565b6040518082815260200191505060405180910390f35b610258610d38565b6040518082815260200191505060405180910390f35b341561027957600080fd5b61032b600480803590602001908201803590602001908080601f0160208091040260200160405190810160405280939291908181526020018383808284378201915050505050509190803590602001908201803590602001908080601f0160208091040260200160405190810160405280939291908181526020018383808284378201915050505050509190803573ffffffffffffffffffffffffffffffffffffffff16906020019091905050610d94565b6040518082815260200191505060405180910390f35b341561034c57600080fd5b610378600480803573ffffffffffffffffffffffffffffffffffffffff169060200190919050506110e9565b6040518082815260200191505060405180910390f35b341561039957600080fd5b6103af6004808035906020019091905050611131565b005b34156103bc57600080fd5b6103d26004808035906020019091905050611544565b005b34156103df57600080fd5b61040b600480803573ffffffffffffffffffffffffffffffffffffffff1690602001909190505061179b565b6040518082815260200191505060405180910390f35b6000610474346000803373ffffffffffffffffffffffffffffffffffffffff1673ffffffffffffffffffffffffffffffffffffffff168152602001908152602001600020546117b390919063ffffffff16565b6000803373ffffffffffffffffffffffffffffffffffffffff1673ffffffffffffffffffffffffffffffffffffffff168152602001908152602001600020819055507fd15c9547ea5c06670c0010ce19bc32d54682a4b3801ece7f3ab0c3f17106b4bb3334604051808373ffffffffffffffffffffffffffffffffffffffff1673ffffffffffffffffffffffffffffffffffffffff1681526020018281526020019250505060405180910390a16000803373ffffffffffffffffffffffffffffffffffffffff1673ffffffffffffffffffffffffffffffffffffffff16815260200190815260200160002054905090565b6000816000803373ffffffffffffffffffffffffffffffffffffffff1673ffffffffffffffffffffffffffffffffffffffff168152602001908152602001600020541115156105b357600080fd5b610604826000803373ffffffffffffffffffffffffffffffffffffffff1673ffffffffffffffffffffffffffffffffffffffff168152602001908152602001600020546117d190919063ffffffff16565b6000803373ffffffffffffffffffffffffffffffffffffffff1673ffffffffffffffffffffffffffffffffffffffff168152602001908152602001600020819055503373ffffffffffffffffffffffffffffffffffffffff166108fc839081150290604051600060405180830381858888f19350505050151561068657600080fd5b7f4482101800a5c2e900f4156e57e05e19ffd7b366cde579553d723fd3abb2180e3383604051808373ffffffffffffffffffffffffffffffffffffffff1673ffffffffffffffffffffffffffffffffffffffff1681526020018281526020019250505060405180910390a16000803373ffffffffffffffffffffffffffffffffffffffff1673ffffffffffffffffffffffffffffffffffffffff168152602001908152602001600020549050919050565b6000806000600b60009054906101000a900473ffffffffffffffffffffffffffffffffffffffff168073ffffffffffffffffffffffffffffffffffffffff163373ffffffffffffffffffffffffffffffffffffffff1614151561079957600080fd5b600a6000888152602001908152602001600020935060008460080160006101000a81548160ff0219169083151502179055508360090160008673ffffffffffffffffffffffffffffffffffffffff1673ffffffffffffffffffffffffffffffffffffffff1681526020019081526020016000205492508360090160008673ffffffffffffffffffffffffffffffffffffffff1673ffffffffffffffffffffffffffffffffffffffff168152602001908152602001600020600090556108a8838560090160008973ffffffffffffffffffffffffffffffffffffffff1673ffffffffffffffffffffffffffffffffffffffff168152602001908152602001600020546117b390919063ffffffff16565b8460090160008873ffffffffffffffffffffffffffffffffffffffff1673ffffffffffffffffffffffffffffffffffffffff168152602001908152602001600020819055507fbbfb20ec9a4f3519c6cb0ee76b8607e0cc524ecb74a03058d2e307b6f6d02e40878787604051808481526020018373ffffffffffffffffffffffffffffffffffffffff1673ffffffffffffffffffffffffffffffffffffffff1681526020018273ffffffffffffffffffffffffffffffffffffffff1673ffffffffffffffffffffffffffffffffffffffff168152602001935050505060405180910390a18473ffffffffffffffffffffffffffffffffffffffff168460010160009054906101000a900473ffffffffffffffffffffffffffffffffffffffff1673ffffffffffffffffffffffffffffffffffffffff161415610b1457600091505b8360060154821015610a7e57610a38846000015485600501600085815260200190815260200160002060009054906101000a900473ffffffffffffffffffffffffffffffffffffffff166117ea565b5083600501600083815260200190815260200160002060006101000a81549073ffffffffffffffffffffffffffffffffffffffff021916905581806001019250506109e9565b600a60008881526020019081526020016000206000808201600090556001820160006101000a81549073ffffffffffffffffffffffffffffffffffffffff0219169055600282016000610ad19190611bee565b600382016000610ae19190611bee565b6004820160009055600682016000905560078201600090556008820160006101000a81549060ff02191690555050610b77565b8573ffffffffffffffffffffffffffffffffffffffff168460010160009054906101000a900473ffffffffffffffffffffffffffffffffffffffff1673ffffffffffffffffffffffffffffffffffffffff161415610b7657610b7587611131565b5b5b50505050505050565b60015481565b600260009054906101000a900473ffffffffffffffffffffffffffffffffffffffff1681565b6000600a60008381526020019081526020016000209050600554610bdd8260040154436117d190919063ffffffff16565b11151515610bea57600080fd5b6004546000803373ffffffffffffffffffffffffffffffffffffffff1673ffffffffffffffffffffffffffffffffffffffff1681526020019081526020016000205410151515610c3957600080fd5b610c46823360045461199e565b50338160050160008360060154815260200190815260200160002060006101000a81548173ffffffffffffffffffffffffffffffffffffffff021916908373ffffffffffffffffffffffffffffffffffffffff160217905550610cb7600182600601546117b390919063ffffffff16565b81600601819055507f829b4d84d4743d197a9b0fad05abef9f517535e06d50e0b85b1e77089b8afa9d8233604051808381526020018273ffffffffffffffffffffffffffffffffffffffff1673ffffffffffffffffffffffffffffffffffffffff1681526020019250505060405180910390a15050565b6000600154905090565b6000610d4f346001546117b390919063ffffffff16565b6001819055507f8146a5b13216b9ff873a0bec62f51b6c4c619244d14f4d8b9b0eb8741dbc48af346040518082815260200191505060405180910390a1600154905090565b600080600760009054906101000a900473ffffffffffffffffffffffffffffffffffffffff168073ffffffffffffffffffffffffffffffffffffffff163373ffffffffffffffffffffffffffffffffffffffff16141515610df457600080fd5b6004546000808673ffffffffffffffffffffffffffffffffffffffff1673ffffffffffffffffffffffffffffffffffffffff1681526020019081526020016000205410151515610e4357600080fd5b600a600060035481526020019081526020016000209150838260010160006101000a81548173ffffffffffffffffffffffffffffffffffffffff021916908373ffffffffffffffffffffffffffffffffffffffff16021790555085826002019080519060200190610eb5929190611c36565b5084826003019080519060200190610ece929190611c36565b50600082600601819055506000826007018190555060008260080160006101000a81548160ff021916908315150217905550438260040181905550610f186003548560045461199e565b507f3dd94f4964946edbcf822a77f4abd83b2a91b03f889cece28612831d85c243d36003548360010160009054906101000a900473ffffffffffffffffffffffffffffffffffffffff168460020185600301604051808581526020018473ffffffffffffffffffffffffffffffffffffffff1673ffffffffffffffffffffffffffffffffffffffff168152602001806020018060200183810383528581815460018160011615610100020316600290048152602001915080546001816001161561010002031660029004801561102f5780601f106110045761010080835404028352916020019161102f565b820191906000526020600020905b81548152906001019060200180831161101257829003601f168201915b50508381038252848181546001816001161561010002031660029004815260200191508054600181600116156101000203166002900480156110b25780601f10611087576101008083540402835291602001916110b2565b820191906000526020600020905b81548152906001019060200180831161109557829003601f168201915b5050965050505050505060405180910390a16110da60016003546117b390919063ffffffff16565b50600354925050509392505050565b60008060008373ffffffffffffffffffffffffffffffffffffffff1673ffffffffffffffffffffffffffffffffffffffff168152602001908152602001600020549050919050565b6000600a600083815260200190815260200160002090508060070154816006015411151561115e57600080fd5b600015158160080160009054906101000a900460ff16151514151561118257600080fd5b600b60009054906101000a900473ffffffffffffffffffffffffffffffffffffffff1673ffffffffffffffffffffffffffffffffffffffff1663d34f09008260050160008460070154815260200190815260200160002060009054906101000a900473ffffffffffffffffffffffffffffffffffffffff168360010160009054906101000a900473ffffffffffffffffffffffffffffffffffffffff1684600201856003016108026040518663ffffffff167c0100000000000000000000000000000000000000000000000000000000028152600401808673ffffffffffffffffffffffffffffffffffffffff1673ffffffffffffffffffffffffffffffffffffffff1681526020018573ffffffffffffffffffffffffffffffffffffffff1673ffffffffffffffffffffffffffffffffffffffff168152602001806020018060200184815260200183810383528681815460018160011615610100020316600290048152602001915080546001816001161561010002031660029004801561134c5780601f106113215761010080835404028352916020019161134c565b820191906000526020600020905b81548152906001019060200180831161132f57829003601f168201915b50508381038252858181546001816001161561010002031660029004815260200191508054600181600116156101000203166002900480156113cf5780601f106113a4576101008083540402835291602001916113cf565b820191906000526020600020905b8154815290600101906020018083116113b257829003601f168201915b5050975050505050505050600060405180830381600087803b15156113f357600080fd5b6102c65a03f1151561140457600080fd5b5050507fce82abbcd9e20b1c148621eba10c6391a2574dc2b893e43b0414010b2ba85e6d828260010160009054906101000a900473ffffffffffffffffffffffffffffffffffffffff168360050160008560070154815260200190815260200160002060009054906101000a900473ffffffffffffffffffffffffffffffffffffffff16604051808481526020018373ffffffffffffffffffffffffffffffffffffffff1673ffffffffffffffffffffffffffffffffffffffff1681526020018273ffffffffffffffffffffffffffffffffffffffff1673ffffffffffffffffffffffffffffffffffffffff168152602001935050505060405180910390a160018160080160006101000a81548160ff021916908315150217905550611538600182600701546117b390919063ffffffff16565b81600701819055505050565b6000600a600083815260200190815260200160002090506005546115758260040154436117d190919063ffffffff16565b11151561158157600080fd5b600015158160080160009054906101000a900460ff1615151415156115a557600080fd5b806007015481600601541415156115bb57600080fd5b6115ed81600001548260010160009054906101000a900473ffffffffffffffffffffffffffffffffffffffff166117ea565b507f4549d9b7bb648611ec44e49083bbeeba3960dc743ea4f12e3998860c46da0b2e828260010160009054906101000a900473ffffffffffffffffffffffffffffffffffffffff168360020184600301604051808581526020018473ffffffffffffffffffffffffffffffffffffffff1673ffffffffffffffffffffffffffffffffffffffff16815260200180602001806020018381038352858181546001816001161561010002031660029004815260200191508054600181600116156101000203166002900480156117025780601f106116d757610100808354040283529160200191611702565b820191906000526020600020905b8154815290600101906020018083116116e557829003601f168201915b50508381038252848181546001816001161561010002031660029004815260200191508054600181600116156101000203166002900480156117855780601f1061175a57610100808354040283529160200191611785565b820191906000526020600020905b81548152906001019060200180831161176857829003601f168201915b5050965050505050505060405180910390a15050565b60006020528060005260406000206000915090505481565b60008082840190508381101515156117c757fe5b8091505092915050565b60008282111515156117df57fe5b818303905092915050565b6000806000600a600086815260200190815260200160002091508160090160008573ffffffffffffffffffffffffffffffffffffffff1673ffffffffffffffffffffffffffffffffffffffff1681526020019081526020016000205490508160090160008573ffffffffffffffffffffffffffffffffffffffff1673ffffffffffffffffffffffffffffffffffffffff168152602001908152602001600020600090556118de816000808773ffffffffffffffffffffffffffffffffffffffff1673ffffffffffffffffffffffffffffffffffffffff168152602001908152602001600020546117b390919063ffffffff16565b6000808673ffffffffffffffffffffffffffffffffffffffff1673ffffffffffffffffffffffffffffffffffffffff168152602001908152602001600020819055507f44c8a24da6f48938ce6ee551c058529a48695baf9b754bf3184fc5f065878b10858583604051808481526020018373ffffffffffffffffffffffffffffffffffffffff1673ffffffffffffffffffffffffffffffffffffffff168152602001828152602001935050505060405180910390a1809250505092915050565b600080600a60008681526020019081526020016000209050826000808673ffffffffffffffffffffffffffffffffffffffff1673ffffffffffffffffffffffffffffffffffffffff1681526020019081526020016000205410151515611a0357600080fd5b611a54836000808773ffffffffffffffffffffffffffffffffffffffff1673ffffffffffffffffffffffffffffffffffffffff168152602001908152602001600020546117d190919063ffffffff16565b6000808673ffffffffffffffffffffffffffffffffffffffff1673ffffffffffffffffffffffffffffffffffffffff16815260200190815260200160002081905550611aea838260090160008773ffffffffffffffffffffffffffffffffffffffff1673ffffffffffffffffffffffffffffffffffffffff168152602001908152602001600020546117b390919063ffffffff16565b8160090160008673ffffffffffffffffffffffffffffffffffffffff1673ffffffffffffffffffffffffffffffffffffffff168152602001908152602001600020819055507f5552f672574aa03647978f5573eebe6545f711fc59f43558a820e8d251c34661858585604051808481526020018373ffffffffffffffffffffffffffffffffffffffff1673ffffffffffffffffffffffffffffffffffffffff168152602001828152602001935050505060405180910390a18060090160008573ffffffffffffffffffffffffffffffffffffffff1673ffffffffffffffffffffffffffffffffffffffff168152602001908152602001600020549150509392505050565b50805460018160011615610100020316600290046000825580601f10611c145750611c33565b601f016020900490600052602060002090810190611c329190611cb6565b5b50565b828054600181600116156101000203166002900490600052602060002090601f016020900481019282601f10611c7757805160ff1916838001178555611ca5565b82800160010185558215611ca5579182015b82811115611ca4578251825591602001919060010190611c89565b5b509050611cb29190611cb6565b5090565b611cd891905b80821115611cd4576000816000905550600101611cbc565b5090565b905600a165627a7a723058207909c358b5ae2a7d6c54b1ff204f0ad59105b07419f16f32654ba504e75d78da0029",
  "source": "pragma solidity ^0.4.0;\n\nimport {DepositsManager} from './DepositsManager.sol';\nimport {ScryptVerifier} from \"./scryptVerifier.sol\";\n\n// ClaimManager: queues a sequence of challengers to play with a claimant.\n\ncontract ClaimManager is DepositsManager {\n    uint private numClaims = 0;     // index as key for the claims mapping.\n    uint private minDeposit = 1;    // TODO: what should the minimum deposit be?\n\n    // a claim goes through two stages after being created:\n    // stage 1: new challenges are allowed.\n    // stage 2: no new challenges are allowed.\n    // the claim exists until all verification games are played out.\n    // reasoning behind having two stages is to prevent DoS attacks;\n    // i.e. a malicious adversary cannot sybil challenge a claim after challengeTimeout blocks have passed.\n    uint private challengeTimeout = 20;\n\n    // blocks to wait for callback from scryptVerifier,\n    // before moving onto the next.\n    // TODO: we're not using this yet.\n    uint private verificationGameTimeout = 40;\n\n    address dogeRelayAddress;\n    address receiver;\n    address scryptVerifierAddress;\n\n    event DepositBonded(uint claimID, address account, uint amount);\n    event DepositUnbonded(uint claimID, address account, uint amount);\n    event ClaimCreated(uint claimID, address claimant, bytes plaintext, bytes blockHash);\n    event ClaimChallenged(uint claimID, address challenger);\n    event ClaimVerificationGameStarted(uint claimID, address claimant, address challenger);\n    event ClaimDecided(uint claimID, address winner, address loser);\n    event ClaimSuccessful(uint claimID, address claimant, bytes plaintext, bytes blockHash);\n\n    struct ScryptClaim {\n        uint id;\n        address claimant;\n        bytes plaintext;    // the plaintext Dogecoin block header.\n        bytes blockHash;    // the Dogecoin blockhash.\n        uint createdAt;     // the block number at which the claim was created.\n        mapping (uint => address) challengers;      // all current challengers.\n        uint numChallengers;\n        uint currentChallenger;    // index of next challenger to play a verification game.\n        bool verificationOngoing;   // is the claim waiting for results from an ongoing verificationg game.\n        mapping (address => uint) bondedDeposits;   // all deposits bonded in this claim.\n    }\n\n    mapping(uint => ScryptClaim) private claims;\n    \n    modifier onlyBy(address _account) {\n        require(msg.sender == _account);\n        _;\n    }\n\n    ScryptVerifier sv;\n \n    // @dev – the constructor\n    function ClaimManager(address _dogeRelayAddress, address _scryptVerifierAddress) public {\n        owner = msg.sender;\n        dogeRelayAddress = _dogeRelayAddress;\n        sv = ScryptVerifier(_scryptVerifierAddress);\n    }\n\n    // @dev – locks up part of the a user's deposit into a claim.\n    // @param claimID – the claim id.\n    // @param account – the user's address.\n    // @param amount – the amount of deposit to lock up. \n    // @return – the user's deposit bonded for the claim.\n    function bondDeposit(uint claimID, address account, uint amount) private returns (uint) {\n        ScryptClaim storage claim = claims[claimID];\n        require(deposits[account] >= amount);\n        deposits[account] = deposits[account].sub(amount);\n        claim.bondedDeposits[account] = claim.bondedDeposits[account].add(amount);\n        DepositBonded(claimID, account, amount);\n        return claim.bondedDeposits[account];\n    }\n    \n    // @dev – unlocks a user's bonded deposits from a claim.\n    // @param claimID – the claim id.\n    // @param account – the user's address.\n    // @return – the user's deposit which was unbonded from the claim.\n    function unbondDeposit(uint claimID, address account) private returns (uint) {\n        ScryptClaim storage claim = claims[claimID];\n        uint bondedDeposit = claim.bondedDeposits[account];\n        delete claim.bondedDeposits[account];\n        deposits[account] = deposits[account].add(bondedDeposit);\n        DepositUnbonded(claimID, account, bondedDeposit);\n\n        return bondedDeposit;\n    }\n \n    // @dev – check whether a DogeCoin blockHash was calculated correctly from the plaintext block header.\n    // only callable by the DogeRelay contract.\n    // @param _plaintext – the plaintext blockHeader.\n    // @param _blockHash – the blockHash.\n    // @param claimant – the address of the Dogecoin block submitter.\n    function checkScrypt(bytes _plaintext, bytes _blockHash, address claimant) onlyBy(dogeRelayAddress) public returns (uint) {\n        require(deposits[claimant] >= minDeposit);\n\n        ScryptClaim storage claim = claims[numClaims];\n        claim.claimant = claimant;\n        claim.plaintext = _plaintext;\n        claim.blockHash = _blockHash;\n        claim.numChallengers = 0;\n        claim.currentChallenger = 0;\n        claim.verificationOngoing = false;\n        claim.createdAt = block.number;\n\n        bondDeposit(numClaims, claimant, minDeposit); \n        ClaimCreated(numClaims, claim.claimant, claim.plaintext, claim.blockHash);\n\n        numClaims.add(1);\n        return numClaims;\n    }\n\n    // @dev – challenge an existing Scrypt claim.\n    // triggers a downstream claim computation on the scryptVerifier contract\n    // where the claimant & the challenger will immediately begin playing a verification.\n    //\n    // @param claimID – the claim ID.\n    function challengeClaim(uint claimID) public {\n        ScryptClaim storage claim = claims[claimID];\n\n        // check that the claim is in Stage 1 (i.e. accepting new challenges).\n        require(block.number.sub(claim.createdAt) <= challengeTimeout);\n\n        require(deposits[msg.sender] >= minDeposit);\n        bondDeposit(claimID, msg.sender, minDeposit);\n\n        claim.challengers[claim.numChallengers] = msg.sender;\n        claim.numChallengers = claim.numChallengers.add(1);\n        ClaimChallenged(claimID, msg.sender);\n    }\n\n    // @dev – runs a verification game between the claimant and\n    // the next queued-up challenger.\n    // \n    // @param claimID – the claim id.\n    function runNextVerificationGame(uint claimID) public {\n        ScryptClaim storage claim = claims[claimID];\n\n        // check if there is a challenger who has not the played verificationg game yet.\n        require(claim.numChallengers > claim.currentChallenger);\n        \n        require(claim.verificationOngoing == false);\n \n        // kick off a verification game.\n        sv.claimComputation(claim.challengers[claim.currentChallenger], claim.claimant, claim.plaintext, claim.blockHash, 2050);\n        ClaimVerificationGameStarted(claimID, claim.claimant, claim.challengers[claim.currentChallenger]);\n\n        claim.verificationOngoing = true;\n        claim.currentChallenger = claim.currentChallenger.add(1);\n    }\n\n    // @dev – called when a verification game has ended.\n    // only callable by the scryptVerifier contract.\n    //\n    // @param claimID – the claim ID.\n    // @param winner – winner of the verification game.\n    // @param loser – loser of the verification game.\n    function claimDecided(uint claimID, address winner, address loser) onlyBy(address(sv)) public {\n        ScryptClaim storage claim = claims[claimID];\n\n        claim.verificationOngoing = false;\n\n        // reward the winner, with the loser's bonded deposit.\n        uint depositToTransfer = claim.bondedDeposits[loser];\n        delete claim.bondedDeposits[loser];\n        claim.bondedDeposits[winner] = claim.bondedDeposits[winner].add(depositToTransfer);\n    \n        ClaimDecided(claimID, winner, loser);\n        \n        if (claim.claimant == loser) {\n            // the claim is over.\n            // note: no callback needed to the DogeRelay contract,\n            // because it by default does not save blocks.\n\n            // unlock the deposits of all challengers\n            for (uint index = 0; index < claim.numChallengers; index++) {\n                unbondDeposit(claim.id, claim.challengers[index]);\n                delete claim.challengers[index];\n            }\n\n            delete claims[claimID];\n        } else if (claim.claimant == winner) {\n            // the claim continues.\n            runNextVerificationGame(claimID);\n        }\n    }\n\n    // @dev – check whether a claim has successfully withstood all challenges.\n    // if successful, it will trigger a callback to the DogeRelay contract,\n    // notifying it that the Scrypt blockhash was correctly calculated.\n    // \n    // @param claimID – the claim ID.\n    function checkClaimSuccessful(uint claimID) public {\n        ScryptClaim storage claim = claims[claimID];\n        \n        // check that the claim is in Stage w (i.e. not accepting new challenges).\n        require(block.number.sub(claim.createdAt) > challengeTimeout);\n        \n        // check that there is no ongoing verification game.\n        require(claim.verificationOngoing == false);\n\n        // check that all verification games have been played.\n        require(claim.numChallengers == claim.currentChallenger);\n\n        unbondDeposit(claim.id, claim.claimant);\n\n        // TODO: callback to the DogeRelay.\n        // DogeRelay.scryptVerified(claim.plaintext, claim.blockHash);\n\n        ClaimSuccessful(claimID, claim.claimant, claim.plaintext, claim.blockHash);\n    }\n}\n\n",
  "sourcePath": "/Users/sinahab/dev/truebit/sinahab/scrypt-interactive/contracts/claimManager.sol",
  "compiler": {
    "name": "solc",
    "version": "0.4.18+commit.9cf6e910.Emscripten.clang"
  },
  "schemaVersion": "1.0.1",
  "updatedAt": "2017-11-20T01:29:15.863Z"
}