{
  "contractName": "DepositsManager",
  "abi": [
    {
      "constant": false,
      "inputs": [
        {
          "name": "amount",
          "type": "uint256"
        }
      ],
      "name": "withdrawDeposit",
      "outputs": [
        {
          "name": "",
          "type": "uint256"
        }
      ],
      "payable": false,
      "stateMutability": "nonpayable",
      "type": "function"
    },
    {
      "constant": false,
      "inputs": [],
      "name": "makeDeposit",
      "outputs": [
        {
          "name": "",
          "type": "uint256"
        }
      ],
      "payable": true,
      "stateMutability": "payable",
      "type": "function"
    },
    {
      "constant": true,
      "inputs": [],
      "name": "jackpot",
      "outputs": [
        {
          "name": "",
          "type": "uint256"
        }
      ],
      "payable": false,
      "stateMutability": "view",
      "type": "function"
    },
    {
      "constant": true,
      "inputs": [],
      "name": "owner",
      "outputs": [
        {
          "name": "",
          "type": "address"
        }
      ],
      "payable": false,
      "stateMutability": "view",
      "type": "function"
    },
    {
      "constant": true,
      "inputs": [],
      "name": "getJackpot",
      "outputs": [
        {
          "name": "",
          "type": "uint256"
        }
      ],
      "payable": false,
      "stateMutability": "view",
      "type": "function"
    },
    {
      "constant": false,
      "inputs": [],
      "name": "donateToJackpot",
      "outputs": [
        {
          "name": "",
          "type": "uint256"
        }
      ],
      "payable": true,
      "stateMutability": "payable",
      "type": "function"
    },
    {
      "constant": true,
      "inputs": [
        {
          "name": "who",
          "type": "address"
        }
      ],
      "name": "getDeposit",
      "outputs": [
        {
          "name": "",
          "type": "uint256"
        }
      ],
      "payable": false,
      "stateMutability": "view",
      "type": "function"
    },
    {
      "constant": true,
      "inputs": [
        {
          "name": "",
          "type": "address"
        }
      ],
      "name": "deposits",
      "outputs": [
        {
          "name": "",
          "type": "uint256"
        }
      ],
      "payable": false,
      "stateMutability": "view",
      "type": "function"
    },
    {
      "inputs": [],
      "payable": false,
      "stateMutability": "nonpayable",
      "type": "constructor"
    },
    {
      "payable": true,
      "stateMutability": "payable",
      "type": "fallback"
    },
    {
      "anonymous": false,
      "inputs": [
        {
          "indexed": false,
          "name": "who",
          "type": "address"
        },
        {
          "indexed": false,
          "name": "amount",
          "type": "uint256"
        }
      ],
      "name": "DepositMade",
      "type": "event"
    },
    {
      "anonymous": false,
      "inputs": [
        {
          "indexed": false,
          "name": "who",
          "type": "address"
        },
        {
          "indexed": false,
          "name": "amount",
          "type": "uint256"
        }
      ],
      "name": "DepositWithdrawn",
      "type": "event"
    },
    {
      "anonymous": false,
      "inputs": [
        {
          "indexed": false,
          "name": "amount",
          "type": "uint256"
        }
      ],
      "name": "JackpotIncreased",
      "type": "event"
    }
  ],
  "bytecode": "0x6060604052341561000f57600080fd5b33600260006101000a81548173ffffffffffffffffffffffffffffffffffffffff021916908373ffffffffffffffffffffffffffffffffffffffff16021790555060006001819055506106b8806100676000396000f30060606040526004361061008e576000357c0100000000000000000000000000000000000000000000000000000000900463ffffffff16806333289a461461009957806340732c89146100d05780636b31ee01146100ee5780638da5cb5b146101175780639329066c1461016c578063bffb511d14610195578063e1254fba146101b3578063fc7e286d14610200575b61009661024d565b50005b34156100a457600080fd5b6100ba6004808035906020019091905050610391565b6040518082815260200191505060405180910390f35b6100d861024d565b6040518082815260200191505060405180910390f35b34156100f957600080fd5b610101610563565b6040518082815260200191505060405180910390f35b341561012257600080fd5b61012a610569565b604051808273ffffffffffffffffffffffffffffffffffffffff1673ffffffffffffffffffffffffffffffffffffffff16815260200191505060405180910390f35b341561017757600080fd5b61017f61058f565b6040518082815260200191505060405180910390f35b61019d610599565b6040518082815260200191505060405180910390f35b34156101be57600080fd5b6101ea600480803573ffffffffffffffffffffffffffffffffffffffff169060200190919050506105f5565b6040518082815260200191505060405180910390f35b341561020b57600080fd5b610237600480803573ffffffffffffffffffffffffffffffffffffffff1690602001909190505061063d565b6040518082815260200191505060405180910390f35b60006102a0346000803373ffffffffffffffffffffffffffffffffffffffff1673ffffffffffffffffffffffffffffffffffffffff1681526020019081526020016000205461065590919063ffffffff16565b6000803373ffffffffffffffffffffffffffffffffffffffff1673ffffffffffffffffffffffffffffffffffffffff168152602001908152602001600020819055507fd15c9547ea5c06670c0010ce19bc32d54682a4b3801ece7f3ab0c3f17106b4bb3334604051808373ffffffffffffffffffffffffffffffffffffffff1673ffffffffffffffffffffffffffffffffffffffff1681526020018281526020019250505060405180910390a16000803373ffffffffffffffffffffffffffffffffffffffff1673ffffffffffffffffffffffffffffffffffffffff16815260200190815260200160002054905090565b6000816000803373ffffffffffffffffffffffffffffffffffffffff1673ffffffffffffffffffffffffffffffffffffffff168152602001908152602001600020541115156103df57600080fd5b610430826000803373ffffffffffffffffffffffffffffffffffffffff1673ffffffffffffffffffffffffffffffffffffffff1681526020019081526020016000205461067390919063ffffffff16565b6000803373ffffffffffffffffffffffffffffffffffffffff1673ffffffffffffffffffffffffffffffffffffffff168152602001908152602001600020819055503373ffffffffffffffffffffffffffffffffffffffff166108fc839081150290604051600060405180830381858888f1935050505015156104b257600080fd5b7f4482101800a5c2e900f4156e57e05e19ffd7b366cde579553d723fd3abb2180e3383604051808373ffffffffffffffffffffffffffffffffffffffff1673ffffffffffffffffffffffffffffffffffffffff1681526020018281526020019250505060405180910390a16000803373ffffffffffffffffffffffffffffffffffffffff1673ffffffffffffffffffffffffffffffffffffffff168152602001908152602001600020549050919050565b60015481565b600260009054906101000a900473ffffffffffffffffffffffffffffffffffffffff1681565b6000600154905090565b60006105b03460015461065590919063ffffffff16565b6001819055507f8146a5b13216b9ff873a0bec62f51b6c4c619244d14f4d8b9b0eb8741dbc48af346040518082815260200191505060405180910390a1600154905090565b60008060008373ffffffffffffffffffffffffffffffffffffffff1673ffffffffffffffffffffffffffffffffffffffff168152602001908152602001600020549050919050565b60006020528060005260406000206000915090505481565b600080828401905083811015151561066957fe5b8091505092915050565b600082821115151561068157fe5b8183039050929150505600a165627a7a723058206d3bd9a0ea135f304318145dc0a84d8ee8ad9120e69b8fd4aaac5f3c41b60cc20029",
  "source": "pragma solidity ^0.4.4;\n\nimport './math/SafeMath.sol';\n\ncontract DepositsManager {\n  using SafeMath for uint;\n\n  mapping(address => uint) public deposits;\n  uint public jackpot;\n  address public owner;\n\n  event DepositMade(address who, uint amount);\n  event DepositWithdrawn(address who, uint amount);\n  event JackpotIncreased(uint amount);\n\n  // @dev – the constructor\n  function DepositsManager() public {\n    owner = msg.sender;\n    jackpot = 0;\n  }\n  \n  // @dev – fallback to calling makeDeposit when ether is sent directly to contract.\n  function() public payable {\n    makeDeposit();\n  }\n\n  // @dev – returns an account's deposit\n  // @param who – the account's address.\n  // @return – the account's deposit.\n  function getDeposit(address who) constant public returns (uint) {\n    return deposits[who];\n  }\n\n  // @dev – returns the current jackpot\n  // @return – the jackpot.\n  function getJackpot() constant public returns (uint) {\n    return jackpot;\n  }\n\n  // @dev – allows a user to deposit eth.\n  // @return – the user's updated deposit amount.\n  function makeDeposit() public payable returns (uint) {\n    deposits[msg.sender] = deposits[msg.sender].add(msg.value);\n    DepositMade(msg.sender, msg.value);\n    return deposits[msg.sender];\n  }\n\n  // @dev – allows a user to withdraw eth from their deposit.\n  // @param amount – how much eth to withdraw\n  // @return – the user's updated deposit amount.\n  function withdrawDeposit(uint amount) public returns (uint) {\n    require(deposits[msg.sender] > amount);\n\n    deposits[msg.sender] = deposits[msg.sender].sub(amount);\n    msg.sender.transfer(amount);\n\n    DepositWithdrawn(msg.sender, amount);\n    return deposits[msg.sender];\n  }\n\n  // @dev – allows a uer to donate to the jackpot.\n  // @return – the updated jackpot amount.\n  function donateToJackpot() public payable returns (uint) {\n    jackpot = jackpot.add(msg.value);\n    JackpotIncreased(msg.value);\n    return jackpot;\n  }\n}\n",
  "sourcePath": "/Users/sinahab/dev/truebit/sinahab/scrypt-interactive/contracts/DepositsManager.sol",
  "compiler": {
    "name": "solc",
    "version": "0.4.18+commit.9cf6e910.Emscripten.clang"
  },
  "schemaVersion": "1.0.1",
  "updatedAt": "2017-11-19T18:56:28.902Z"
}