{
  "contractName": "ScryptVerifier",
  "abi": [
    {
      "constant": false,
      "inputs": [
        {
          "name": "sessionId",
          "type": "uint256"
        }
      ],
      "name": "timeout",
      "outputs": [],
      "payable": false,
      "stateMutability": "nonpayable",
      "type": "function"
    },
    {
      "constant": false,
      "inputs": [
        {
          "name": "session",
          "type": "uint256"
        },
        {
          "name": "preValue",
          "type": "bytes"
        },
        {
          "name": "postValue",
          "type": "bytes"
        },
        {
          "name": "proofs",
          "type": "bytes"
        }
      ],
      "name": "performStepVerification",
      "outputs": [],
      "payable": false,
      "stateMutability": "nonpayable",
      "type": "function"
    },
    {
      "constant": true,
      "inputs": [
        {
          "name": "step",
          "type": "uint256"
        },
        {
          "name": "preState",
          "type": "bytes"
        },
        {
          "name": "postState",
          "type": "bytes"
        },
        {
          "name": "proof",
          "type": "bytes"
        }
      ],
      "name": "verifyStep",
      "outputs": [
        {
          "name": "success",
          "type": "bool"
        }
      ],
      "payable": false,
      "stateMutability": "pure",
      "type": "function"
    },
    {
      "constant": false,
      "inputs": [
        {
          "name": "session",
          "type": "uint256"
        },
        {
          "name": "step",
          "type": "uint256"
        },
        {
          "name": "hash",
          "type": "bytes32"
        },
        {
          "name": "proof",
          "type": "bytes"
        }
      ],
      "name": "respond",
      "outputs": [
        {
          "name": "success",
          "type": "bool"
        }
      ],
      "payable": false,
      "stateMutability": "nonpayable",
      "type": "function"
    },
    {
      "constant": true,
      "inputs": [
        {
          "name": "",
          "type": "uint256"
        },
        {
          "name": "step",
          "type": "uint256"
        },
        {
          "name": "hash",
          "type": "bytes32"
        }
      ],
      "name": "sessions",
      "outputs": [
        {
          "name": "id",
          "type": "uint256"
        },
        {
          "name": "claimant",
          "type": "address"
        },
        {
          "name": "challenger",
          "type": "address"
        },
        {
          "name": "input",
          "type": "bytes"
        },
        {
          "name": "output",
          "type": "bytes"
        },
        {
          "name": "lastClaimantMessage",
          "type": "uint256"
        },
        {
          "name": "lastChallengerMessage",
          "type": "uint256"
        },
        {
          "name": "lowStep",
          "type": "uint256"
        },
        {
          "name": "lowHash",
          "type": "bytes32"
        },
        {
          "name": "medStep",
          "type": "uint256"
        },
        {
          "name": "medHash",
          "type": "bytes32"
        },
        {
          "name": "highStep",
          "type": "uint256"
        },
        {
          "name": "highHash",
          "type": "bytes32"
        }
      ],
      "payable": false,
      "stateMutability": "view",
      "type": "function"
    },
    {
      "constant": false,
      "inputs": [
        {
          "name": "session",
          "type": "uint256"
        },
        {
          "name": "step",
          "type": "uint256"
        }
      ],
      "name": "query",
      "outputs": [
        {
          "name": "id",
          "type": "uint256"
        },
        {
          "name": "claimant",
          "type": "address"
        },
        {
          "name": "challenger",
          "type": "address"
        },
        {
          "name": "input",
          "type": "bytes"
        },
        {
          "name": "output",
          "type": "bytes"
        },
        {
          "name": "lastClaimantMessage",
          "type": "uint256"
        },
        {
          "name": "lastChallengerMessage",
          "type": "uint256"
        },
        {
          "name": "lowStep",
          "type": "uint256"
        },
        {
          "name": "lowHash",
          "type": "bytes32"
        },
        {
          "name": "medStep",
          "type": "uint256"
        },
        {
          "name": "medHash",
          "type": "bytes32"
        },
        {
          "name": "highStep",
          "type": "uint256"
        },
        {
          "name": "highHash",
          "type": "bytes32"
        }
      ],
      "payable": false,
      "stateMutability": "nonpayable",
      "type": "function"
    },
    {
      "constant": false,
      "inputs": [
        {
          "name": "challenger",
          "type": "address"
        },
        {
          "name": "claimant",
          "type": "address"
        },
        {
          "name": "_input",
          "type": "bytes"
        },
        {
          "name": "_output",
          "type": "bytes"
        },
        {
          "name": "steps",
          "type": "uint256"
        }
      ],
      "name": "claimComputation",
      "outputs": [],
      "payable": false,
      "stateMutability": "nonpayable",
      "type": "function"
    },
    {
      "anonymous": false,
      "inputs": [
        {
          "indexed": false,
          "name": "sessionId",
          "type": "uint256"
        }
      ],
      "name": "NewClaim",
      "type": "event"
    },
    {
      "anonymous": false,
      "inputs": [
        {
          "indexed": false,
          "name": "sessionId",
          "type": "uint256"
        }
      ],
      "name": "NewQuery",
      "type": "event"
    },
    {
      "anonymous": false,
      "inputs": [
        {
          "indexed": false,
          "name": "sessionId",
          "type": "uint256"
        }
      ],
      "name": "NewResponse",
      "type": "event"
    },
    {
      "anonymous": false,
      "inputs": [
        {
          "indexed": false,
          "name": "sessionId",
          "type": "uint256"
        }
      ],
      "name": "ChallengerConvicted",
      "type": "event"
    },
    {
      "anonymous": false,
      "inputs": [
        {
          "indexed": false,
          "name": "sessionId",
          "type": "uint256"
        }
      ],
      "name": "ClaimantConvicted",
      "type": "event"
    }
  ],
  "bytecode": "0x6060604052341561000f57600080fd5b6134598061001e6000396000f300606060405260043610610083576000357c0100000000000000000000000000000000000000000000000000000000900463ffffffff16806308148f7a1461008857806324ddb58c146100ab5780634591a98014610197578063561117511461029b57806383c4b7a3146102d4578063af6682ab146104d3578063d34f0900146104ff575b600080fd5b341561009357600080fd5b6100a960048080359060200190919050506105e6565b005b34156100b657600080fd5b610195600480803590602001909190803590602001908201803590602001908080601f0160208091040260200160405190810160405280939291908181526020018383808284378201915050505050509190803590602001908201803590602001908080601f0160208091040260200160405190810160405280939291908181526020018383808284378201915050505050509190803590602001908201803590602001908080601f016020809104026020016040519081016040528093929190818152602001838380828437820191505050505050919050506106c5565b005b34156101a257600080fd5b610281600480803590602001909190803590602001908201803590602001908080601f0160208091040260200160405190810160405280939291908181526020018383808284378201915050505050509190803590602001908201803590602001908080601f0160208091040260200160405190810160405280939291908181526020018383808284378201915050505050509190803590602001908201803590602001908080601f016020809104026020016040519081016040528093929190818152602001838380828437820191505050505050919050506108b2565b604051808215151515815260200191505060405180910390f35b34156102a657600080fd5b6102d2600480803590602001909190803590602001909190803560001916906020019091905050610a32565b005b34156102df57600080fd5b6102f56004808035906020019091905050610b6d565b604051808e81526020018d73ffffffffffffffffffffffffffffffffffffffff1673ffffffffffffffffffffffffffffffffffffffff1681526020018c73ffffffffffffffffffffffffffffffffffffffff1673ffffffffffffffffffffffffffffffffffffffff16815260200180602001806020018b81526020018a815260200189815260200188600019166000191681526020018781526020018660001916600019168152602001858152602001846000191660001916815260200183810383528d8181546001816001161561010002031660029004815260200191508054600181600116156101000203166002900480156104345780601f1061040957610100808354040283529160200191610434565b820191906000526020600020905b81548152906001019060200180831161041757829003601f168201915b505083810382528c8181546001816001161561010002031660029004815260200191508054600181600116156101000203166002900480156104b75780601f1061048c576101008083540402835291602001916104b7565b820191906000526020600020905b81548152906001019060200180831161049a57829003601f168201915b50509f5050505050505050505050505050505060405180910390f35b34156104de57600080fd5b6104fd6004808035906020019091908035906020019091905050610c20565b005b341561050a57600080fd5b6105e4600480803573ffffffffffffffffffffffffffffffffffffffff1690602001909190803573ffffffffffffffffffffffffffffffffffffffff1690602001909190803590602001908201803590602001908080601f0160208091040260200160405190810160405280939291908181526020018383808284378201915050505050509190803590602001908201803590602001908080601f01602080910402602001604051908101604052809392919081815260200183838082843782019150505050505091908035906020019091905050610f37565b005b600080828154811015156105f657fe5b90600052602060002090600d0201905060008160010160009054906101000a900473ffffffffffffffffffffffffffffffffffffffff1673ffffffffffffffffffffffffffffffffffffffff161415151561065057600080fd5b8060050154816006015411801561066e5750610e1081600501540142115b156106815761067c82611289565b6106c1565b8060060154816005015411801561069f5750610e1081600601540142115b156106b2576106ad826112cc565b6106c0565b600015156106bf57600080fd5b5b5b5050565b6000846000818154811015156106d757fe5b90600052602060002090600d020160010160009054906101000a900473ffffffffffffffffffffffffffffffffffffffff1673ffffffffffffffffffffffffffffffffffffffff163373ffffffffffffffffffffffffffffffffffffffff1614151561074257600080fd5b60008681548110151561075157fe5b90600052602060002090600d0201915081600b0154600183600701540114151561077a57600080fd5b816008015460001916856040518082805190602001908083835b6020831015156107b95780518252602082019150602081019050602083039250610794565b6001836020036101000a0380198251168184511680821785525050505050509050019150506040518091039020600019161415156107fb576107fa86611289565b5b81600c015460001916846040518082805190602001908083835b60208310151561083a5780518252602082019150602081019050602083039250610815565b6001836020036101000a03801982511681845116808217855250505050505090500191505060405180910390206000191614151561087c5761087b86611289565b5b61088d82836007015487878761130f565b156108a05761089b866112cc565b6108aa565b6108a986611289565b5b505050505050565b60006108bc613132565b60006108c661316d565b60008814156108f3576108d887611328565b92506108ec6108e6846114ef565b87611579565b9350610a27565b6108fc87611652565b809450819350505081156109135760009350610a27565b61080188101561097e57610926856116f3565b80905082604001819052819350505081156109445760009350610a27565b6109528360018a0383611783565b8060200151156109655760009350610a27565b610977610971846114ef565b87611579565b9350610a27565b610801881415610a2257826040015160001916856040518082805190602001908083835b6020831015156109c757805182526020820191506020810190506020830392506109a2565b6001836020036101000a038019825116818451168082178552505050505050905001915050604051809103902060001916141515610a085760009350610a27565b610a1b610a1584876118d2565b87611579565b9350610a27565b600093505b505050949350505050565b600083600081815481101515610a4457fe5b90600052602060002090600d020160010160009054906101000a900473ffffffffffffffffffffffffffffffffffffffff1673ffffffffffffffffffffffffffffffffffffffff163373ffffffffffffffffffffffffffffffffffffffff16141515610aaf57600080fd5b600085815481101515610abe57fe5b90600052602060002090600d02019150816009015484141515610ae057600080fd5b600060010282600a015460001916141515610afa57600080fd5b600060010283600019161415610b1857610b13856112cc565b610b66565b8282600a0181600019169055504282600501819055507f53b55b3d6349be0707243ec0a2bc86efff3ab477b9aabf8a02d4e3dfdc450b7c856040518082815260200191505060405180910390a15b5050505050565b600081815481101515610b7c57fe5b90600052602060002090600d02016000915090508060000154908060010160009054906101000a900473ffffffffffffffffffffffffffffffffffffffff16908060020160009054906101000a900473ffffffffffffffffffffffffffffffffffffffff16908060030190806004019080600501549080600601549080600701549080600801549080600901549080600a01549080600b01549080600c015490508d565b60008260008082815481101515610c3357fe5b90600052602060002090600d0201905060008160020160009054906101000a900473ffffffffffffffffffffffffffffffffffffffff1673ffffffffffffffffffffffffffffffffffffffff161415610cce57338160020160006101000a81548173ffffffffffffffffffffffffffffffffffffffff021916908373ffffffffffffffffffffffffffffffffffffffff160217905550610d2d565b8060020160009054906101000a900473ffffffffffffffffffffffffffffffffffffffff1673ffffffffffffffffffffffffffffffffffffffff163373ffffffffffffffffffffffffffffffffffffffff16141515610d2c57600080fd5b5b600085815481101515610d3c57fe5b90600052602060002090600d02019250600060010283600a015460001916141580610d6b575060008360090154145b1515610d7657600080fd5b826007015484148015610d8f5750826009015460018501145b15610db65782600a015483600c0181600019169055506001840183600b0181905550610ef0565b826009015484148015610dcf575082600b015460018501145b15610df35782600a0154836008018160001916905550838360070181905550610eef565b826007015484118015610e09575082600b015484105b1515610e1457600080fd5b60008360090154148015610e335750600060010283600a015460001916145b15610e3d57610ed4565b600060010283600a01546000191614151515610e5857600080fd5b8260090154841015610e8757826009015483600b018190555082600a015483600c018160001916905550610ed3565b826009015484111515610e9957600080fd5b600060010283600a01546000191614151515610eb457600080fd5b8260090154836007018190555082600a01548360080181600019169055505b5b838360090181905550600060010283600a0181600019169055505b5b4283600601819055507f890f4ee87afef7ca736ed90d4fa2de8a87fbe25414f176af1b6df419bc535a85856040518082815260200191505060405180910390a15050505050565b600281111515610f4657600080fd5b60008054806001018281610f5a9190613199565b91600052602060002090600d020160006101a06040519081016040528060008054905081526020018873ffffffffffffffffffffffffffffffffffffffff1681526020018973ffffffffffffffffffffffffffffffffffffffff16815260200187815260200186815260200142815260200142815260200160008152602001876040518082805190602001908083835b60208310151561100f5780518252602082019150602081019050602083039250610fea565b6001836020036101000a0380198251168184511680821785525050505050509050019150506040518091039020600019168152602001600081526020016000600102600019168152602001858152602001866040518082805190602001908083835b6020831015156110965780518252602082019150602081019050602083039250611071565b6001836020036101000a03801982511681845116808217855250505050505090500191505060405180910390206000191681525090919091506000820151816000015560208201518160010160006101000a81548173ffffffffffffffffffffffffffffffffffffffff021916908373ffffffffffffffffffffffffffffffffffffffff16021790555060408201518160020160006101000a81548173ffffffffffffffffffffffffffffffffffffffff021916908373ffffffffffffffffffffffffffffffffffffffff16021790555060608201518160030190805190602001906111839291906131cb565b5060808201518160040190805190602001906111a09291906131cb565b5060a0820151816005015560c0820151816006015560e082015181600701556101008201518160080190600019169055610120820151816009015561014082015181600a019060001916905561016082015181600b015561018082015181600c0190600019169055505050611238600060016000805490500381548110151561122557fe5b90600052602060002090600d0201611b20565b151561124357600080fd5b7f02119b07214559f0c9a891b95f8f39f06f076d1af02f443aa8c024a8d4b669c56001600080549050036040518082815260200191505060405180910390a15050505050565b61129281611b56565b7f4d4a1ea29f6abf2bd16c5db7e1420215d94654cf958264c14b1e1b567e85c5c3816040518082815260200191505060405180910390a150565b6112d581611b56565b7f3c4b9ce3b2cfa5b6eb4f2a53d150b531f501ad769b19dd31023a4bb5e9ed4d52816040518082815260200191505060405180910390a150565b600061131d858585856108b2565b905095945050505050565b611330613132565b816040518082805190602001908083835b6020831015156113665780518252602082019150602081019050602083039250611341565b6001836020036101000a0380198251168184511680821785525050505050509050019150506040518091039020816040019060001916908160001916815250506113b282836080611c2f565b81600001819052506113da816000015160006004811015156113d057fe5b6020020151611dcf565b816000015160006004811015156113ed57fe5b6020020181815250506114168160000151600160048110151561140c57fe5b6020020151611dcf565b8160000151600160048110151561142957fe5b6020020181815250506114528160000151600260048110151561144857fe5b6020020151611dcf565b8160000151600260048110151561146557fe5b60200201818152505061148e8160000151600360048110151561148457fe5b6020020151611dcf565b816000015160036004811015156114a157fe5b6020020181815250507fe82cea94884b1b895ea0742840a3b19249a723810fd1b04d8564d675b0a416f1600102816020019060001916908160001916815250506114ea81611f7f565b919050565b6114f761324b565b6114ff61325f565b60008060c06040518059106115115750595b9080825280601f01601f19166020018201604052509350846000015192508460200151915084604001519050600083015160208501526020830151604085015260408301516060850152606083015160808501528160a08501528060c0850152505050919050565b6000816040518082805190602001908083835b6020831015156115b1578051825260208201915060208101905060208303925061158c565b6001836020036101000a038019825116818451168082178552505050505050905001915050604051809103902060001916836040518082805190602001908083835b60208310151561161857805182526020820191506020810190506020830392506115f3565b6001836020036101000a03801982511681845116808217855250505050505090500191505060405180910390206000191614905092915050565b600061165c613132565b61166461325f565b60008060c0865114151561167e57600184945094506116eb565b836000015192506020860151600084015260408601516020840152606086015160408401526080860151606084015260a0860151915060c0860151905081846020019060001916908160001916815250508084604001906000191690816000191681525050600084945094505b505050915091565b60006116fd613287565b6000806020855181151561170d57fe5b06141515611721576001829250925061177d565b835190506020845181151561173257fe5b046040518059106117405750595b90808252806020026020018201604052509150602082016020850160005b8381101561177957808201518184015260208101905061175e565b5050505b50915091565b60008060008060006108008710151561179b57600080fd5b6104008710156117cf576117b588888a6000015189611f82565b6117c288600001516120bd565b88600001819052506118c8565b6104007c01000000000000000000000000000000000000000000000000000000008960000151600260048110151561180357fe5b602002015181151561181157fe5b0481151561181b57fe5b06945061182988868861217c565b93509350935093506118bf608060405190810160405280868b60000151600060048110151561185457fe5b6020020151188152602001858b60000151600160048110151561187357fe5b6020020151188152602001848b60000151600260048110151561189257fe5b6020020151188152602001838b6000015160036004811015156118b157fe5b6020020151188152506120bd565b88600001819052505b5050505050505050565b6118da61324b565b6118e261324b565b6118ea61325f565b6000856040015160001916856040518082805190602001908083835b60208310151561192b5780518252602082019150602081019050602083039250611906565b6001836020036101000a03801982511681845116808217855250505050505090500191505060405180910390206000191614151561196857600080fd5b6119888660000151600060048110151561197e57fe5b6020020151611dcf565b8660000151600060048110151561199b57fe5b6020020181815250506119c4866000015160016004811015156119ba57fe5b6020020151611dcf565b866000015160016004811015156119d757fe5b602002018181525050611a00866000015160026004811015156119f657fe5b6020020151611dcf565b86600001516002600481101515611a1357fe5b602002018181525050611a3c86600001516003600481101515611a3257fe5b6020020151611dcf565b86600001516003600481101515611a4f57fe5b602002018181525050611a658660000151612233565b9250611a7385846020611c2f565b91506000826001600481101515611a8657fe5b6020020151148015611aab57506000826002600481101515611aa457fe5b6020020151145b8015611aca57506000826003600481101515611ac357fe5b6020020151145b1515611ad557600080fd5b6020604051805910611ae45750595b9080825280601f01601f19166020018201604052509350816000600481101515611b0a57fe5b6020020151905080602085015250505092915050565b6000602082600401805460018160011615610100020316600290049050148015611b4f575061080282600b0154145b9050919050565b600081815481101515611b6557fe5b90600052602060002090600d02016000808201600090556001820160006101000a81549073ffffffffffffffffffffffffffffffffffffffff02191690556002820160006101000a81549073ffffffffffffffffffffffffffffffffffffffff0219169055600382016000611bda919061329b565b600482016000611bea919061329b565b60058201600090556006820160009055600782016000905560088201600090556009820160009055600a820160009055600b820160009055600c820160009055505050565b611c3761325f565b611c3f61324b565b60006004855101604051805910611c535750595b9080825280601f01601f19166020018201604052509150600090505b8451811015611d1c578481815181101515611c8657fe5b9060200101517f010000000000000000000000000000000000000000000000000000000000000090047f0100000000000000000000000000000000000000000000000000000000000000028282815181101515611cdf57fe5b9060200101907effffffffffffffffffffffffffffffffffffffffffffffffffffffffffffff1916908160001a9053508080600101915050611c6f565b600090505b83602082021015611dc657600181017f010000000000000000000000000000000000000000000000000000000000000002826001845103815181101515611d6457fe5b9060200101907effffffffffffffffffffffffffffffffffffffffffffffffffffffffffffff1916908160001a905350611d9e86836122d9565b600190048382600481101515611db057fe5b6020020181815250508080600101915050611d21565b50509392505050565b60006001611de8600184811515611de257fe5b0461265d565b02640100000000611e0864010000000085811515611e0257fe5b0461265d565b0268010000000000000000611e306801000000000000000086811515611e2a57fe5b0461265d565b026c01000000000000000000000000611e606c0100000000000000000000000087811515611e5a57fe5b0461265d565b02700100000000000000000000000000000000611e9870010000000000000000000000000000000088811515611e9257fe5b0461265d565b0274010000000000000000000000000000000000000000611ed87401000000000000000000000000000000000000000089811515611ed257fe5b0461265d565b027801000000000000000000000000000000000000000000000000611f2078010000000000000000000000000000000000000000000000008a811515611f1a57fe5b0461265d565b027c0100000000000000000000000000000000000000000000000000000000611f707c01000000000000000000000000000000000000000000000000000000008b811515611f6a57fe5b0461265d565b02010101010101019050919050565b50565b611f8d8484836126a5565b50816000600481101515611f9d57fe5b602002015160010281604001516000815181101515611fb857fe5b906020019060200201906000191690816000191681525050816001600481101515611fdf57fe5b602002015160010281604001516001815181101515611ffa57fe5b90602001906020020190600019169081600019168152505081600260048110151561202157fe5b60200201516001028160400151600281518110151561203c57fe5b90602001906020020190600019169081600019168152505081600360048110151561206357fe5b60200201516001028160400151600381518110151561207e57fe5b9060200190602002019060001916908160001916815250506120a4816040015184612728565b8460200190600019169081600019168152505050505050565b6120c561325f565b6000806000808560006004811015156120da57fe5b60200201518660016004811015156120ee57fe5b602002015187600260048110151561210257fe5b602002015188600360048110151561211657fe5b602002015193509350935093506121318285188285186128c1565b80945081955050506121478285188285186128c1565b809250819350505060806040519081016040528085815260200184815260200183815260200182815250945050505050919050565b6000806000806104008610151561219257600080fd5b61219d8787876126a5565b50846040015160008151811015156121b157fe5b90602001906020020151600190049350846040015160018151811015156121d457fe5b90602001906020020151600190049250846040015160028151811015156121f757fe5b906020019060200201516001900491508460400151600381518110151561221a57fe5b9060200190602002015160019004905093509350935093565b61223b61324b565b6000608060405180591061224c5750595b9080825280601f01601f1916602001820160405250915082600060048110151561227257fe5b6020020151905080602083015282600160048110151561228e57fe5b602002015190508060408301528260026004811015156122aa57fe5b602002015190508060608301528260036004811015156122c657fe5b6020020151905080608083015250919050565b60008060008060008060408851111561237f576002886000604051602001526040518082805190602001908083835b60208310151561232d5780518252602082019150602081019050602083039250612308565b6001836020036101000a03801982511681845116808217855250505050505090500191505060206040518083038160008661646e5a03f1151561236f57600080fd5b50506040518051905094506124ea565b600092505b8751831080156123945750602083105b156124345782601f0360080260020a88848151811015156123b157fe5b9060200101517f010000000000000000000000000000000000000000000000000000000000000090047f0100000000000000000000000000000000000000000000000000000000000000027f0100000000000000000000000000000000000000000000000000000000000000900402600102851794508280600101935050612384565b602092505b8751831080156124495750604083105b156124e95782603f0360080260020a888481518110151561246657fe5b9060200101517f010000000000000000000000000000000000000000000000000000000000000090047f0100000000000000000000000000000000000000000000000000000000000000027f0100000000000000000000000000000000000000000000000000000000000000900402600102841793508280600101935050612439565b5b7f363636363636363636363636363636363636363636363636363636363636363660010291507f5c5c5c5c5c5c5c5c5c5c5c5c5c5c5c5c5c5c5c5c5c5c5c5c5c5c5c5c5c5c5c5c6001029050600285821885831860028886188887188c600060405160200152604051808460001916600019168152602001836000191660001916815260200182805190602001908083835b6020831015156125a1578051825260208201915060208101905060208303925061257c565b6001836020036101000a038019825116818451168082178552505050505050905001935050505060206040518083038160008661646e5a03f115156125e557600080fd5b50506040518051905060006040516020015260405180846000191660001916815260200183600019166000191681526020018260001916600019168152602001935050505060206040518083038160008661646e5a03f1151561264757600080fd5b5050604051805190509550505050505092915050565b6000630100000063ff000000831681151561267457fe5b0461010062ff0000841681151561268757fe5b0461010061ff00851602630100000060ff8616020101019050919050565b6000610400831015156126b757600080fd5b600e8260400151511415156126e057600182602001901515908115158152505060009050612721565b8360200151600019166126f7836040015185612728565b6000191614151561271c57600182602001901515908115158152505060009050612721565b600190505b9392505050565b600080600084600081518110151561273c57fe5b9060200190602002015185600181518110151561275557fe5b9060200190602002015186600281518110151561276e57fe5b9060200190602002015187600381518110151561278757fe5b9060200190602002015160405180856000191660001916815260200184600019166000191681526020018360001916600019168152602001826000191660001916815260200194505050505060405180910390209150600090505b600a8110156128b65760006002858115156127f957fe5b06141561284f5781858260040181518110151561281257fe5b906020019060200201516040518083600019166000191681526020018260001916600019168152602001925050506040518091039020915061289a565b848160040181518110151561286057fe5b9060200190602002015182604051808360001916600019168152602001826000191660001916815260200192505050604051809103902091505b6002848115156128a657fe5b04935080806001019150506127e2565b819250505092915050565b6000806000806000869250859150600090505b600881101561290c576128e78383612981565b80935081945050506128f98383612d41565b80935081945050506002810190506128d4565b600090505b60088110156129775761293e6129278483613047565b6129318984613047565b0163ffffffff1682613069565b8517945061296661294f8383613047565b6129598884613047565b0163ffffffff1682613069565b841793508080600101915050612911565b5050509250929050565b600080600080600080612a167c0100000000000000000000000000000000000000000000000000000000898115156129b557fe5b046c010000000000000000000000008a8115156129ce57fe5b047c01000000000000000000000000000000000000000000000000000000008a8115156129f757fe5b046c010000000000000000000000008b811515612a1057fe5b04613082565b93509350935093506c010000000000000000000000008363ffffffff16027c01000000000000000000000000000000000000000000000000000000008563ffffffff16021795506c010000000000000000000000008163ffffffff16027c01000000000000000000000000000000000000000000000000000000008363ffffffff1602179450612b186801000000000000000089811515612ab357fe5b04780100000000000000000000000000000000000000000000000089811515612ad857fe5b04680100000000000000008a811515612aed57fe5b0478010000000000000000000000000000000000000000000000008c811515612b1257fe5b04613082565b8094508195508296508397505050505078010000000000000000000000000000000000000000000000008163ffffffff1602680100000000000000008563ffffffff16021786179550680100000000000000008263ffffffff160278010000000000000000000000000000000000000000000000008463ffffffff16021785179450612c067401000000000000000000000000000000000000000088811515612bbd57fe5b0464010000000089811515612bce57fe5b04740100000000000000000000000000000000000000008b811515612bef57fe5b046401000000008c811515612c0057fe5b04613082565b809450819550829650839750505050506401000000008163ffffffff1602740100000000000000000000000000000000000000008363ffffffff160217861795506401000000008363ffffffff1602740100000000000000000000000000000000000000008563ffffffff16021785179450612cd4600188811515612c8757fe5b047001000000000000000000000000000000008a811515612ca457fe5b0460018b811515612cb157fe5b047001000000000000000000000000000000008b811515612cce57fe5b04613082565b8094508195508296508397505050505060018263ffffffff16027001000000000000000000000000000000008463ffffffff160217861795507001000000000000000000000000000000008163ffffffff160260018563ffffffff16021785179450505050509250929050565b600080600080600080612dde7c010000000000000000000000000000000000000000000000000000000089811515612d7557fe5b0478010000000000000000000000000000000000000000000000008a811515612d9a57fe5b04740100000000000000000000000000000000000000008b811515612dbb57fe5b047001000000000000000000000000000000008c811515612dd857fe5b04613082565b93509350935093508063ffffffff166401000000008363ffffffff166401000000008663ffffffff166401000000008963ffffffff160217021702179550612e706801000000000000000089811515612e3357fe5b046401000000008a811515612e4457fe5b0460018b811515612e5157fe5b046c010000000000000000000000008c811515612e6a57fe5b04613082565b809750819450829550839650505050508063ffffffff166401000000008363ffffffff166401000000008663ffffffff166401000000008963ffffffff166401000000008d02170217021702179550612f537401000000000000000000000000000000000000000088811515612ee257fe5b0470010000000000000000000000000000000089811515612eff57fe5b047c01000000000000000000000000000000000000000000000000000000008a811515612f2857fe5b0478010000000000000000000000000000000000000000000000008b811515612f4d57fe5b04613082565b809650819750829450839550505050508063ffffffff166401000000008363ffffffff166401000000008663ffffffff166401000000008963ffffffff160217021702179450612fed600188811515612fa857fe5b046c0100000000000000000000000089811515612fc157fe5b04680100000000000000008a811515612fd657fe5b046401000000008b811515612fe757fe5b04613082565b809550819650829750839450505050508063ffffffff166401000000008363ffffffff166401000000008663ffffffff166401000000008963ffffffff166401000000008c02170217021702179450505050509250929050565b60006020808302610100030360020a8381151561306057fe5b04905092915050565b60006020808302610100030360020a8302905092915050565b6000806000806000858901905063020000008163ffffffff168115156130a457fe5b046080820217881897508888019050628000008163ffffffff168115156130c757fe5b04610200820217871896508787019050620800008163ffffffff168115156130eb57fe5b046120008202178618955086860190506140008163ffffffff1681151561310e57fe5b04620400008202178918985088888888945094509450945050945094509450949050565b60e0604051908101604052806131466132e3565b8152602001600080191681526020016000801916815260200161316761330b565b81525090565b60606040519081016040528060001515815260200160001515815260200161319361331f565b81525090565b8154818355818115116131c657600d0281600d0283600052602060002091820191016131c59190613333565b5b505050565b828054600181600116156101000203166002900490600052602060002090601f016020900481019282601f1061320c57805160ff191683800117855561323a565b8280016001018555821561323a579182015b8281111561323957825182559160200191906001019061321e565b5b5090506132479190613408565b5090565b602060405190810160405280600081525090565b6080604051908101604052806004905b600081526020019060019003908161326f5790505090565b602060405190810160405280600081525090565b50805460018160011615610100020316600290046000825580601f106132c157506132e0565b601f0160209004906000526020600020908101906132df9190613408565b5b50565b6080604051908101604052806004905b60008152602001906001900390816132f35790505090565b602060405190810160405280600081525090565b602060405190810160405280600081525090565b61340591905b80821115613401576000808201600090556001820160006101000a81549073ffffffffffffffffffffffffffffffffffffffff02191690556002820160006101000a81549073ffffffffffffffffffffffffffffffffffffffff02191690556003820160006133a8919061329b565b6004820160006133b8919061329b565b60058201600090556006820160009055600782016000905560088201600090556009820160009055600a820160009055600b820160009055600c82016000905550600d01613339565b5090565b90565b61342a91905b8082111561342657600081600090555060010161340e565b5090565b905600a165627a7a72305820a15f8ced71c3cd6fd77d00b1d98b3b5ee507cc4266f15635925fd1c980a11ad40029",
  "source": "pragma solidity ^0.4.0;\n\nimport {ScryptFramework} from \"./scryptFramework.sol\";\nimport {Verifier} from \"./verify.sol\";\nimport {ClaimManager} from \"./claimManager.sol\";\n\n/**\n* @title\n* @author Christian Reitwiessner\n*/\ncontract ScryptVerifier is ScryptFramework, Verifier {\n\n    modifier onlyBy(address _account) {\n        require(msg.sender == _account);\n        _;\n    }\n\n    function isInitiallyValid(VerificationSession storage session) internal returns (bool) {\n        return session.output.length == 32 && session.highStep == 2050;\n    }\n    function performStepVerificationSpecific(VerificationSession storage, uint step, bytes preState, bytes postState, bytes proof) internal returns (bool) {\n        return verifyStep(step, preState, postState, proof);\n    }\n\n    /**\n    * @dev verifies a step\n    *\n    * @param step the index of the step to verify\n    * @param preState the previous state's serialized State struct instance\n    * @param postState the next step's state's serialized State struct instance\n    * @param proof the merkle proof\n    *\n    * @return returns true on success\n    */\n    function verifyStep(uint step, bytes preState, bytes postState, bytes proof) pure public returns (bool success) {\n        State memory state;\n        if (step == 0) {\n            // pre-state is input\n            state = inputToState(preState);\n            return equal(encodeState(state), postState);\n        }\n        bool error;\n        (error, state) = decodeState(preState);\n        if (error) return false;\n\n        if (step < 2049) {\n            Proofs memory proofs;\n            (error, proofs.proof) = toArray(proof);\n            if (error) return false;\n\n            runStep(state, step - 1, proofs);\n            if (proofs.verificationError) return false;\n\n            return equal(encodeState(state), postState);\n        } else if (step == 2049) {\n            if (keccak256(proof) != state.inputHash) return false;\n            return equal(finalStateToOutput(state, proof), postState);\n        } else {\n            return false;\n        }\n    }\n\n    function initMemory(State memory) pure internal {\n    }\n\n    /**\n    * @dev extracts the read result from the proof and verifies the proof against the memory root hash\n    *\n    * @param state the State struct instance\n    * @param index the offset\n    * @param proofs the proofs\n    *\n    * @return returns the read result\n    */\n    function readMemory(State memory state, uint index, Proofs memory proofs) pure internal returns (uint a, uint b, uint c, uint d) {\n        require(index < 1024);\n\n        preCheckProof(state, index, proofs);\n\n        // Extract read result from proof\n        a = uint(proofs.proof[0]);\n        b = uint(proofs.proof[1]);\n        c = uint(proofs.proof[2]);\n        d = uint(proofs.proof[3]);\n    }\n\n    /**\n    * @dev extract the write result from the proof and verify the proof against the memory root hash\n    *\n    * @param state the state struct\n    * @param index the index of fullMemory at which to write\n    * @param values the values to write\n    * @param proofs the write proofs\n    *\n    * @return \n    */\n    function writeMemory(State memory state, uint index, uint[4] values, Proofs memory proofs) pure internal {\n        preCheckProof(state, index, proofs);\n\n        proofs.proof[0] = bytes32(values[0]);\n        proofs.proof[1] = bytes32(values[1]);\n        proofs.proof[2] = bytes32(values[2]);\n        proofs.proof[3] = bytes32(values[3]);\n\n        // Compute the post-hash.\n        state.memoryHash = executeProof(proofs.proof, index);\n    }\n\n    /**\n    * @dev \n    *\n    * @param state the state vars\n    * @param index the index of fullMemory\n    * @param proofs the merkle proofs\n    *\n    * @return return whether the verification passed.\n    */\n    function preCheckProof(State memory state, uint index, Proofs memory proofs) pure internal returns (bool) {\n        require(index < 1024);\n        if (proofs.proof.length != 14) {\n            proofs.verificationError = true;\n            return false;\n        }\n        // Check the pre-hash.\n        if (executeProof(proofs.proof, index) != state.memoryHash) {\n            proofs.verificationError = true;\n            return false;\n        }\n        return true;\n    }\n\n    /**\n    * @dev \n    *\n    * @param proof something\n    * @param index something\n    *\n    * @return \n    */\n    function executeProof(bytes32[] proof, uint index) pure internal returns (bytes32) {\n        bytes32 h = keccak256(proof[0], proof[1], proof[2], proof[3]);\n        for (uint step = 0; step < 10; step++) {\n            if (index % 2 == 0) {\n                h = keccak256(h, proof[4 + step]);\n            } else {\n                h = keccak256(proof[4 + step], h);\n            }\n            index /= 2;\n        }\n        return h;\n    }\n}\n",
  "sourcePath": "/Users/sinahab/dev/truebit/sinahab/scrypt-interactive/contracts/scryptVerifier.sol",
  "compiler": {
    "name": "solc",
    "version": "0.4.18+commit.9cf6e910.Emscripten.clang"
  },
  "schemaVersion": "1.0.1",
  "updatedAt": "2017-11-20T01:29:15.959Z"
}