{
  "contractName": "ScryptRunner",
  "abi": [
    {
      "constant": true,
      "inputs": [
        {
          "name": "input",
          "type": "bytes"
        },
        {
          "name": "upToStep",
          "type": "uint256"
        }
      ],
      "name": "run",
      "outputs": [
        {
          "name": "stateHash",
          "type": "bytes32"
        },
        {
          "name": "vars",
          "type": "uint256[4]"
        },
        {
          "name": "memoryHash",
          "type": "bytes32"
        },
        {
          "name": "proof",
          "type": "bytes32[]"
        },
        {
          "name": "output",
          "type": "bytes"
        }
      ],
      "payable": false,
      "stateMutability": "pure",
      "type": "function"
    },
    {
      "constant": true,
      "inputs": [
        {
          "name": "input",
          "type": "bytes"
        },
        {
          "name": "step",
          "type": "uint256"
        }
      ],
      "name": "getStateProofAndHash",
      "outputs": [
        {
          "name": "state",
          "type": "bytes"
        },
        {
          "name": "proof",
          "type": "bytes"
        },
        {
          "name": "stateHash",
          "type": "bytes32"
        }
      ],
      "payable": false,
      "stateMutability": "pure",
      "type": "function"
    },
    {
      "constant": true,
      "inputs": [
        {
          "name": "input",
          "type": "bytes"
        },
        {
          "name": "step",
          "type": "uint256"
        }
      ],
      "name": "getStateHash",
      "outputs": [
        {
          "name": "stateHash",
          "type": "bytes32"
        }
      ],
      "payable": false,
      "stateMutability": "pure",
      "type": "function"
    },
    {
      "constant": true,
      "inputs": [
        {
          "name": "input",
          "type": "bytes"
        },
        {
          "name": "step",
          "type": "uint256"
        }
      ],
      "name": "getStateAndProof",
      "outputs": [
        {
          "name": "state",
          "type": "bytes"
        },
        {
          "name": "proof",
          "type": "bytes"
        }
      ],
      "payable": false,
      "stateMutability": "pure",
      "type": "function"
    }
  ],
  "bytecode": "0x6060604052341561000f57600080fd5b61289e8061001e6000396000f300606060405260043610610062576000357c0100000000000000000000000000000000000000000000000000000000900463ffffffff168063194e10ce1461006757806347040cb4146101db5780636a2c1ace14610335578063c96d2dfa146103b7575b600080fd5b341561007257600080fd5b6100cb600480803590602001908201803590602001908080601f01602080910402602001604051908101604052809392919081815260200183838082843782019150505050505091908035906020019091905050610502565b60405180866000191660001916815260200185600460200280838360005b838110156101045780820151818401526020810190506100e9565b5050505090500184600019166000191681526020018060200180602001838103835285818151815260200191508051906020019060200280838360005b8381101561015c578082015181840152602081019050610141565b50505050905001838103825284818151815260200191508051906020019080838360005b8381101561019b578082015181840152602081019050610180565b50505050905090810190601f1680156101c85780820380516001836020036101000a031916815260200191505b5097505050505050505060405180910390f35b34156101e657600080fd5b61023f600480803590602001908201803590602001908080601f0160208091040260200160405190810160405280939291908181526020018383808284378201915050505050509190803590602001909190505061065c565b6040518080602001806020018460001916600019168152602001838103835286818151815260200191508051906020019080838360005b83811015610291578082015181840152602081019050610276565b50505050905090810190601f1680156102be5780820380516001836020036101000a031916815260200191505b50838103825285818151815260200191508051906020019080838360005b838110156102f75780820151818401526020810190506102dc565b50505050905090810190601f1680156103245780820380516001836020036101000a031916815260200191505b509550505050505060405180910390f35b341561034057600080fd5b610399600480803590602001908201803590602001908080601f016020809104026020016040519081016040528093929190818152602001838380828437820191505050505050919080359060200190919050506106f2565b60405180826000191660001916815260200191505060405180910390f35b34156103c257600080fd5b61041b600480803590602001908201803590602001908080601f01602080910402602001604051908101604052809392919081815260200183838082843782019150505050505091908035906020019091905050610786565b604051808060200180602001838103835285818151815260200191508051906020019080838360005b8381101561045f578082015181840152602081019050610444565b50505050905090810190601f16801561048c5780820380516001836020036101000a031916815260200191505b50838103825284818151815260200191508051906020019080838360005b838110156104c55780820151818401526020810190506104aa565b50505050905090810190601f1680156104f25780820380516001836020036101000a031916815260200191505b5094505050505060405180910390f35b600061050c612757565b600061051661277f565b61051e612793565b6105266127a7565b61052e6127e2565b60008061053a8b610896565b935060008a11156106255760018a039150600090505b8181101561057057610563848285610a5d565b8080600101915050610550565b600183600001901515908115158152505061080082101561059b57610596848385610a5d565b610624565b8a6040518082805190602001908083835b6020831015156105d157805182526020820191506020810190506020830392506105ac565b6001836020036101000a03801982511681845116808217855250505050505090500191505060405180910390206000191684604001516000191614151561061757600080fd5b610621848c610bac565b94505b5b61062e84610dfa565b8460000151856020015185604001518883935081915098509850985098509850505050509295509295909350565b610664612793565b61066c612793565b60006106788585610786565b80935081945050508282846040518082805190602001908083835b6020831015156106b85780518252602082019150602081019050602083039250610693565b6001836020036101000a03801982511681845116808217855250505050505090500191505060405180910390209250925092509250925092565b60006106fc612793565b610802831115151561070d57600080fd5b6107178484610786565b509050806040518082805190602001908083835b602083101515610750578051825260208201915060208101905060208303925061072b565b6001836020036101000a038019825116818451168082178552505050505050905001915050604051809103902091505092915050565b61078e612793565b610796612793565b61079e6127a7565b6107a66127e2565b60008061080287111515156107ba57600080fd5b60008714156107ce5787859550955061088b565b6107d788610896565b935060018714156107f5576107eb84610e6d565b859550955061088b565b61080187111561080757610801610809565b865b9150600290505b8181101561083357610826846002830385610a5d565b8080600101915050610810565b6001836000019015159081151581525050610852846002830385610a5d565b61080287101561087b5761086584610e6d565b6108728460400151610ef7565b9550955061088b565b6108858489610bac565b88955095505b505050509250929050565b61089e6127a7565b816040518082805190602001908083835b6020831015156108d457805182526020820191506020810190506020830392506108af565b6001836020036101000a03801982511681845116808217855250505050505090500191505060405180910390208160400190600019169081600019168152505061092082836080610f5c565b81600001819052506109488160000151600060048110151561093e57fe5b60200201516110fc565b8160000151600060048110151561095b57fe5b6020020181815250506109848160000151600160048110151561097a57fe5b60200201516110fc565b8160000151600160048110151561099757fe5b6020020181815250506109c0816000015160026004811015156109b657fe5b60200201516110fc565b816000015160026004811015156109d357fe5b6020020181815250506109fc816000015160036004811015156109f257fe5b60200201516110fc565b81600001516003600481101515610a0f57fe5b6020020181815250507fe82cea94884b1b895ea0742840a3b19249a723810fd1b04d8564d675b0a416f160010281602001906000191690816000191681525050610a58816112ac565b919050565b600080600080600061080087101515610a7557600080fd5b610400871015610aa957610a8f88888a60000151896112d8565b610a9c88600001516115be565b8860000181905250610ba2565b6104007c010000000000000000000000000000000000000000000000000000000089600001516002600481101515610add57fe5b6020020151811515610aeb57fe5b04811515610af557fe5b069450610b0388868861167d565b9350935093509350610b99608060405190810160405280868b600001516000600481101515610b2e57fe5b6020020151188152602001858b600001516001600481101515610b4d57fe5b6020020151188152602001848b600001516002600481101515610b6c57fe5b6020020151188152602001838b600001516003600481101515610b8b57fe5b6020020151188152506115be565b88600001819052505b5050505050505050565b610bb4612793565b610bbc612793565b610bc4612757565b6000856040015160001916856040518082805190602001908083835b602083101515610c055780518252602082019150602081019050602083039250610be0565b6001836020036101000a038019825116818451168082178552505050505050905001915050604051809103902060001916141515610c4257600080fd5b610c6286600001516000600481101515610c5857fe5b60200201516110fc565b86600001516000600481101515610c7557fe5b602002018181525050610c9e86600001516001600481101515610c9457fe5b60200201516110fc565b86600001516001600481101515610cb157fe5b602002018181525050610cda86600001516002600481101515610cd057fe5b60200201516110fc565b86600001516002600481101515610ced57fe5b602002018181525050610d1686600001516003600481101515610d0c57fe5b60200201516110fc565b86600001516003600481101515610d2957fe5b602002018181525050610d3f86600001516117d6565b9250610d4d85846020610f5c565b91506000826001600481101515610d6057fe5b6020020151148015610d8557506000826002600481101515610d7e57fe5b6020020151145b8015610da457506000826003600481101515610d9d57fe5b6020020151145b1515610daf57600080fd5b6020604051805910610dbe5750595b9080825280601f01601f19166020018201604052509350816000600481101515610de457fe5b6020020151905080602085015250505092915050565b600081602001518260000151836040015160405180846000191660001916815260200183600460200280838360005b83811015610e44578082015181840152602081019050610e29565b505050509050018260001916600019168152602001935050505060405180910390209050919050565b610e75612793565b610e7d612757565b60008060c0604051805910610e8f5750595b9080825280601f01601f19166020018201604052509350846000015192508460200151915084604001519050600083015160208501526020830151604085015260408301516060850152606083015160808501528160a08501528060c0850152505050919050565b610eff612793565b60006020835102905080604051805910610f165750595b9080825280601f01601f19166020018201604052509150602082016020840160005b83811015610f53578082015181840152602081019050610f38565b50505050919050565b610f64612757565b610f6c612793565b60006004855101604051805910610f805750595b9080825280601f01601f19166020018201604052509150600090505b8451811015611049578481815181101515610fb357fe5b9060200101517f010000000000000000000000000000000000000000000000000000000000000090047f010000000000000000000000000000000000000000000000000000000000000002828281518110151561100c57fe5b9060200101907effffffffffffffffffffffffffffffffffffffffffffffffffffffffffffff1916908160001a9053508080600101915050610f9c565b600090505b836020820210156110f357600181017f01000000000000000000000000000000000000000000000000000000000000000282600184510381518110151561109157fe5b9060200101907effffffffffffffffffffffffffffffffffffffffffffffffffffffffffffff1916908160001a9053506110cb868361187c565b6001900483826004811015156110dd57fe5b602002018181525050808060010191505061104e565b50509392505050565b6000600161111560018481151561110f57fe5b04611c00565b026401000000006111356401000000008581151561112f57fe5b04611c00565b026801000000000000000061115d680100000000000000008681151561115757fe5b04611c00565b026c0100000000000000000000000061118d6c010000000000000000000000008781151561118757fe5b04611c00565b027001000000000000000000000000000000006111c5700100000000000000000000000000000000888115156111bf57fe5b04611c00565b027401000000000000000000000000000000000000000061120574010000000000000000000000000000000000000000898115156111ff57fe5b04611c00565b02780100000000000000000000000000000000000000000000000061124d78010000000000000000000000000000000000000000000000008a81151561124757fe5b04611c00565b027c010000000000000000000000000000000000000000000000000000000061129d7c01000000000000000000000000000000000000000000000000000000008b81151561129757fe5b04611c00565b02010101010101019050919050565b6110006040518059106112bc5750595b9080825280602002602001820160405250816060018190525050565b60006112e261280e565b6112ea612757565b6000806000806104008a10151561130057600080fd5b8960800296508a6060015195508760000151156113f0578560008b6004020181518110151561132b57fe5b9060200190602002015185600060048110151561134457fe5b6020020181815250508560018b6004020181518110151561136157fe5b9060200190602002015185600160048110151561137a57fe5b6020020181815250508560028b6004020181518110151561139757fe5b906020019060200201518560026004811015156113b057fe5b6020020181815250508560038b600402018151811015156113cd57fe5b906020019060200201518560036004811015156113e657fe5b6020020181815250505b8860006004811015156113ff57fe5b602002015189600160048110151561141357fe5b60200201518a600260048110151561142757fe5b60200201518b600360048110151561143b57fe5b6020020151935093509350935060208701965083878701526020870196508287870152602087019650818787015260208701965080878701528760000151156115b15761148c8b606001518b611c48565b819150896040018d60200182600019166000191681525082905250508460006004811015156114b757fe5b6020020151600102886040015160008151811015156114d257fe5b9060200190602002019060001916908160001916815250508460016004811015156114f957fe5b60200201516001028860400151600181518110151561151457fe5b90602001906020020190600019169081600019168152505084600260048110151561153b57fe5b60200201516001028860400151600281518110151561155657fe5b90602001906020020190600019169081600019168152505084600360048110151561157d57fe5b60200201516001028860400151600381518110151561159857fe5b9060200190602002019060001916908160001916815250505b5050505050505050505050565b6115c6612757565b6000806000808560006004811015156115db57fe5b60200201518660016004811015156115ef57fe5b602002015187600260048110151561160357fe5b602002015188600360048110151561161757fe5b60200201519350935093509350611632828518828518611ee6565b8094508195505050611648828518828518611ee6565b809250819350505060806040519081016040528085815260200184815260200183815260200182815250945050505050919050565b600080600080600061168d61280e565b6104008810151561169d57600080fd5b876080029150886060015190506020820191508181015195506020820191508181015194506020820191508181015193506020820191508181015192508660000151156117cb576116f2896060015189611c48565b819150886040018b6020018260001916600019168152508290525050856001028760400151600081518110151561172557fe5b906020019060200201906000191690816000191681525050846001028760400151600181518110151561175457fe5b906020019060200201906000191690816000191681525050836001028760400151600281518110151561178357fe5b90602001906020020190600019169081600019168152505082600102876040015160038151811015156117b257fe5b9060200190602002019060001916908160001916815250505b505093509350935093565b6117de612793565b600060806040518059106117ef5750595b9080825280601f01601f1916602001820160405250915082600060048110151561181557fe5b6020020151905080602083015282600160048110151561183157fe5b6020020151905080604083015282600260048110151561184d57fe5b6020020151905080606083015282600360048110151561186957fe5b6020020151905080608083015250919050565b600080600080600080604088511115611922576002886000604051602001526040518082805190602001908083835b6020831015156118d057805182526020820191506020810190506020830392506118ab565b6001836020036101000a03801982511681845116808217855250505050505090500191505060206040518083038160008661646e5a03f1151561191257600080fd5b5050604051805190509450611a8d565b600092505b8751831080156119375750602083105b156119d75782601f0360080260020a888481518110151561195457fe5b9060200101517f010000000000000000000000000000000000000000000000000000000000000090047f0100000000000000000000000000000000000000000000000000000000000000027f0100000000000000000000000000000000000000000000000000000000000000900402600102851794508280600101935050611927565b602092505b8751831080156119ec5750604083105b15611a8c5782603f0360080260020a8884815181101515611a0957fe5b9060200101517f010000000000000000000000000000000000000000000000000000000000000090047f0100000000000000000000000000000000000000000000000000000000000000027f01000000000000000000000000000000000000000000000000000000000000009004026001028417935082806001019350506119dc565b5b7f363636363636363636363636363636363636363636363636363636363636363660010291507f5c5c5c5c5c5c5c5c5c5c5c5c5c5c5c5c5c5c5c5c5c5c5c5c5c5c5c5c5c5c5c5c6001029050600285821885831860028886188887188c600060405160200152604051808460001916600019168152602001836000191660001916815260200182805190602001908083835b602083101515611b445780518252602082019150602081019050602083039250611b1f565b6001836020036101000a038019825116818451168082178552505050505050905001935050505060206040518083038160008661646e5a03f11515611b8857600080fd5b50506040518051905060006040516020015260405180846000191660001916815260200183600019166000191681526020018260001916600019168152602001935050505060206040518083038160008661646e5a03f11515611bea57600080fd5b5050604051805190509550505050505092915050565b6000630100000063ff0000008316811515611c1757fe5b0461010062ff00008416811515611c2a57fe5b0461010061ff00851602630100000060ff8616020101019050919050565b611c5061277f565b600080611c5b61277f565b6000806000879450600e604051805910611c725750595b90808252806020026020018201604052509650610400604051805910611c955750595b90808252806020026020018201604052509350600092505b610400831015611d8c578860008460040201815181101515611ccb57fe5b906020019060200201518960018560040201815181101515611ce957fe5b906020019060200201518a60028660040201815181101515611d0757fe5b906020019060200201518b60038760040201815181101515611d2557fe5b906020019060200201516040518085815260200184815260200183815260200182815260200194505050505060405180910390208484815181101515611d6757fe5b9060200190602002019060001916908160001916815250508280600101935050611cad565b6104009150600490505b8651811015611eb0578360018618815181101515611db057fe5b906020019060200201518782815181101515611dc857fe5b906020019060200201906000191690816000191681525050600285811515611dec57fe5b049450600282811515611dfb57fe5b049150600092505b81831015611ea3578383600202815181101515611e1c57fe5b906020019060200201518460018560020201815181101515611e3a57fe5b9060200190602002015160405180836000191660001916815260200182600019166000191681526020019250505060405180910390208484815181101515611e7e57fe5b9060200190602002019060001916908160001916815250508280600101935050611e03565b8080600101915050611d96565b600182141515611ebc57fe5b86846000815181101515611ecc57fe5b906020019060200201519650965050505050509250929050565b6000806000806000869250859150600090505b6008811015611f3157611f0c8383611fa6565b8093508194505050611f1e8383612366565b8093508194505050600281019050611ef9565b600090505b6008811015611f9c57611f63611f4c848361266c565b611f56898461266c565b0163ffffffff168261268e565b85179450611f8b611f74838361266c565b611f7e888461266c565b0163ffffffff168261268e565b841793508080600101915050611f36565b5050509250929050565b60008060008060008061203b7c010000000000000000000000000000000000000000000000000000000089811515611fda57fe5b046c010000000000000000000000008a811515611ff357fe5b047c01000000000000000000000000000000000000000000000000000000008a81151561201c57fe5b046c010000000000000000000000008b81151561203557fe5b046126a7565b93509350935093506c010000000000000000000000008363ffffffff16027c01000000000000000000000000000000000000000000000000000000008563ffffffff16021795506c010000000000000000000000008163ffffffff16027c01000000000000000000000000000000000000000000000000000000008363ffffffff160217945061213d68010000000000000000898115156120d857fe5b047801000000000000000000000000000000000000000000000000898115156120fd57fe5b04680100000000000000008a81151561211257fe5b0478010000000000000000000000000000000000000000000000008c81151561213757fe5b046126a7565b8094508195508296508397505050505078010000000000000000000000000000000000000000000000008163ffffffff1602680100000000000000008563ffffffff16021786179550680100000000000000008263ffffffff160278010000000000000000000000000000000000000000000000008463ffffffff1602178517945061222b74010000000000000000000000000000000000000000888115156121e257fe5b04640100000000898115156121f357fe5b04740100000000000000000000000000000000000000008b81151561221457fe5b046401000000008c81151561222557fe5b046126a7565b809450819550829650839750505050506401000000008163ffffffff1602740100000000000000000000000000000000000000008363ffffffff160217861795506401000000008363ffffffff1602740100000000000000000000000000000000000000008563ffffffff160217851794506122f96001888115156122ac57fe5b047001000000000000000000000000000000008a8115156122c957fe5b0460018b8115156122d657fe5b047001000000000000000000000000000000008b8115156122f357fe5b046126a7565b8094508195508296508397505050505060018263ffffffff16027001000000000000000000000000000000008463ffffffff160217861795507001000000000000000000000000000000008163ffffffff160260018563ffffffff16021785179450505050509250929050565b6000806000806000806124037c01000000000000000000000000000000000000000000000000000000008981151561239a57fe5b0478010000000000000000000000000000000000000000000000008a8115156123bf57fe5b04740100000000000000000000000000000000000000008b8115156123e057fe5b047001000000000000000000000000000000008c8115156123fd57fe5b046126a7565b93509350935093508063ffffffff166401000000008363ffffffff166401000000008663ffffffff166401000000008963ffffffff160217021702179550612495680100000000000000008981151561245857fe5b046401000000008a81151561246957fe5b0460018b81151561247657fe5b046c010000000000000000000000008c81151561248f57fe5b046126a7565b809750819450829550839650505050508063ffffffff166401000000008363ffffffff166401000000008663ffffffff166401000000008963ffffffff166401000000008d02170217021702179550612578740100000000000000000000000000000000000000008881151561250757fe5b047001000000000000000000000000000000008981151561252457fe5b047c01000000000000000000000000000000000000000000000000000000008a81151561254d57fe5b0478010000000000000000000000000000000000000000000000008b81151561257257fe5b046126a7565b809650819750829450839550505050508063ffffffff166401000000008363ffffffff166401000000008663ffffffff166401000000008963ffffffff1602170217021794506126126001888115156125cd57fe5b046c01000000000000000000000000898115156125e657fe5b04680100000000000000008a8115156125fb57fe5b046401000000008b81151561260c57fe5b046126a7565b809550819650829750839450505050508063ffffffff166401000000008363ffffffff166401000000008663ffffffff166401000000008963ffffffff166401000000008c02170217021702179450505050509250929050565b60006020808302610100030360020a8381151561268557fe5b04905092915050565b60006020808302610100030360020a8302905092915050565b6000806000806000858901905063020000008163ffffffff168115156126c957fe5b046080820217881897508888019050628000008163ffffffff168115156126ec57fe5b04610200820217871896508787019050620800008163ffffffff1681151561271057fe5b046120008202178618955086860190506140008163ffffffff1681151561273357fe5b04620400008202178918985088888888945094509450945050945094509450949050565b6080604051908101604052806004905b60008152602001906001900390816127675790505090565b602060405190810160405280600081525090565b602060405190810160405280600081525090565b60e0604051908101604052806127bb612822565b815260200160008019168152602001600080191681526020016127dc61284a565b81525090565b60606040519081016040528060001515815260200160001515815260200161280861285e565b81525090565b602060405190810160405280600081525090565b6080604051908101604052806004905b60008152602001906001900390816128325790505090565b602060405190810160405280600081525090565b6020604051908101604052806000815250905600a165627a7a723058206739949dcf82f5d7f0cfd37a16ed81122484d07cb8e10ec2e00f5590d159f3250029",
  "source": "pragma solidity ^0.4.0;\n\nimport {ScryptFramework} from \"./scryptFramework.sol\";\n \n/**\n* @title \n* @author Christian Reitwiessner\n*/\ncontract ScryptRunner is ScryptFramework {\n    /**\n    * @dev reserve 4096 bytes for the fullMemory member of the State struct\n    *\n    * @param state the State struct instance\n    *\n    * @return none\n    */\n    function initMemory(State memory state) pure internal {\n        state.fullMemory = new uint[](4 * 1024);\n    }\n\n    /**\n    * @dev run scrypt up to a certain step - just used for testing\n    *\n    * @param input the input\n    * @param upToStep which step to stop running at\n    *\n    * @return the state variables, the memoryHash, the merkle proof and the output byte array\n    */\n    function run(bytes input, uint upToStep) pure public returns (bytes32 stateHash, uint[4] vars, bytes32 memoryHash, bytes32[] proof, bytes output) {\n        State memory s = inputToState(input);\n        Proofs memory proofs;\n        if (upToStep > 0) {\n            uint internalStep = upToStep - 1;\n            for (uint i = 0; i < internalStep; i++) {\n                runStep(s, i, proofs);\n            }   \n            proofs.generateProofs = true;\n            if (internalStep < 2048) {\n                runStep(s, internalStep, proofs);\n            } else {\n                require(s.inputHash == keccak256(input));\n                output = finalStateToOutput(s, input);\n            }\n        }\n        return (hashState(s), s.vars, s.memoryHash, proofs.proof, output);\n    }\n\n    /**\n    * @dev run scrypt up to a certain step and return the state and proof,\n    *      The proof being the one required to get from the previous step to the given one.\n    */\n    function getStateAndProof(bytes input, uint step) public pure returns (bytes state, bytes proof) {\n        require(step <= 2050);\n        if (step == 0) {\n            return (input, proof);\n        }\n        State memory s = inputToState(input);\n        Proofs memory proofs;\n        if (step == 1) {\n            return (encodeState(s), proof);\n        }\n        {\n            uint maxStep = step <= 2049 ? step : 2049;\n            uint i = 2;\n            for (; i < maxStep; i++) {\n                runStep(s, i - 2, proofs);\n            }\n            proofs.generateProofs = true;\n            runStep(s, i - 2, proofs);\n        }\n        if (step < 2050) {\n            return (encodeState(s), toBytes(proofs.proof));\n        }\n        return (finalStateToOutput(s, input), input);\n    }\n\n    function getStateProofAndHash(bytes input, uint step) public pure returns (bytes state, bytes proof, bytes32 stateHash) {\n        (state, proof) = getStateAndProof(input, step);\n        return (state, proof, keccak256(state));\n    }\n\n    /**\n    * @dev get the state hash of a specific step.\n    */\n    function getStateHash(bytes input, uint step) public pure returns (bytes32 stateHash) {\n        require(step <= 2050);\n        var (state,) = getStateAndProof(input, step);\n        return keccak256(state);\n    }\n\n    // The proof for reading memory consists of the values read from memory\n    // plus a list of hashes from leaf to root.\n    /**\n    * @dev read memory and update proofs\n    *\n    * @param state the State struct instance\n    * @param index the index at which to read from fullMemory\n    * @param proofs the merkle proofs for the read\n    *\n    * @return returns the values read from fullMem\n    */\n    function readMemory(State memory state, uint index, Proofs memory proofs) pure internal returns (uint a, uint b, uint c, uint d) {\n        require(index < 1024);\n        uint pos = 0x20 * 4 * index;\n        uint[] memory fullMem = state.fullMemory;\n        assembly {\n            pos := add(pos, 0x20)\n            a := mload(add(fullMem, pos))\n            pos := add(pos, 0x20)\n            b := mload(add(fullMem, pos))\n            pos := add(pos, 0x20)\n            c := mload(add(fullMem, pos))\n            pos := add(pos, 0x20)\n            d := mload(add(fullMem, pos))\n        }\n        if (proofs.generateProofs) {\n            (proofs.proof, state.memoryHash) = generateMemoryProof(state.fullMemory, index);\n            proofs.proof[0] = bytes32(a);\n            proofs.proof[1] = bytes32(b);\n            proofs.proof[2] = bytes32(c);\n            proofs.proof[3] = bytes32(d);\n        }\n    }\n\n    // The proof for writing to memory consists of the four old values in\n    // memory followed by a list of hashes from leaf to root.\n    /**\n    * @dev write to memory\n    *\n    * @param state the State struct\n    * @param index the index at which the write is perfomed\n    * @param values the values that are going to be written in fullMemory\n    * @param proofs the proofs to be updated\n    *\n    * @return none\n    */\n    function writeMemory(State memory state, uint index, uint[4] values, Proofs memory proofs) pure internal {\n        require(index < 1024);\n        uint pos = 0x20 * 4 * index;\n        uint[] memory fullMem = state.fullMemory;\n        uint[4] memory oldValues;\n        if (proofs.generateProofs) {\n            oldValues[0] = fullMem[4 * index + 0];\n            oldValues[1] = fullMem[4 * index + 1];\n            oldValues[2] = fullMem[4 * index + 2];\n            oldValues[3] = fullMem[4 * index + 3];\n        }\n        var (a, b, c, d) = (values[0], values[1], values[2], values[3]);\n        assembly {\n            pos := add(pos, 0x20)\n            mstore(add(fullMem, pos), a)\n            pos := add(pos, 0x20)\n            mstore(add(fullMem, pos), b)\n            pos := add(pos, 0x20)\n            mstore(add(fullMem, pos), c)\n            pos := add(pos, 0x20)\n            mstore(add(fullMem, pos), d)\n        }\n        if (proofs.generateProofs) {\n            (proofs.proof, state.memoryHash) = generateMemoryProof(state.fullMemory, index);\n            // We need the values before we write - the siblings will still be the same.\n            proofs.proof[0] = bytes32(oldValues[0]);\n            proofs.proof[1] = bytes32(oldValues[1]);\n            proofs.proof[2] = bytes32(oldValues[2]);\n            proofs.proof[3] = bytes32(oldValues[3]);\n        }\n    }\n\n    // Generate a proof that shows that the memory root hash was updated correctly.\n    // Returns the value stored at the index (4 array elemets) followed by\n    // a list of siblings (from leaf to root) and the new root hash.\n    // This assumes that index is multiplied by four.\n    // Since we know that memory is only written in sequence, this might be\n    // optimized, but we keep it general for now.\n    /**\n    * @dev generate proof that shows the memory root has been updated correctly\n    *\n    * @param fullMem full memory\n    * @param index the index of the value to be retunred\n    *\n    * @return the merkle proof and the value stored at index\n    */\n    function generateMemoryProof(uint[] fullMem, uint index) internal pure returns (bytes32[] proof, bytes32) {\n        uint access = index;\n        proof = new bytes32[](14);\n        // the first four values will later be changed to either the old value\n        // (for writes) or the read value (for reads)\n        bytes32[] memory hashes = new bytes32[](1024);\n        for (uint i = 0; i < 1024; i++)\n            hashes[i] = keccak256(fullMem[4 * i + 0], fullMem[4 * i + 1], fullMem[4 * i + 2], fullMem[4 * i + 3]);\n        uint numHashes = 1024;\n        for (uint step = 4; step < proof.length; step++) {\n            proof[step] = hashes[access ^ 1];\n            access /= 2;\n            numHashes /= 2;\n            for (i = 0; i < numHashes; i++) {\n                hashes[i] = keccak256(hashes[2 * i], hashes[2 * i + 1]);\n            }\n        }\n        assert(numHashes == 1);\n        return (proof, hashes[0]);\n    }\n}\n",
  "sourcePath": "/Users/sinahab/dev/truebit/sinahab/scrypt-interactive/contracts/scryptRunner.sol",
  "compiler": {
    "name": "solc",
    "version": "0.4.18+commit.9cf6e910.Emscripten.clang"
  },
  "schemaVersion": "1.0.1",
  "updatedAt": "2017-11-19T18:26:32.275Z"
}