{
  "contractName": "ScryptVerifier",
  "abi": [
    {
      "constant": false,
      "inputs": [
        {
          "name": "sessionId",
          "type": "uint256"
        }
      ],
      "name": "timeout",
      "outputs": [],
      "payable": false,
      "stateMutability": "nonpayable",
      "type": "function"
    },
    {
      "constant": false,
      "inputs": [
        {
          "name": "session",
          "type": "uint256"
        },
        {
          "name": "preValue",
          "type": "bytes"
        },
        {
          "name": "postValue",
          "type": "bytes"
        },
        {
          "name": "proofs",
          "type": "bytes"
        }
      ],
      "name": "performStepVerification",
      "outputs": [],
      "payable": false,
      "stateMutability": "nonpayable",
      "type": "function"
    },
    {
      "constant": false,
      "inputs": [
        {
          "name": "_input",
          "type": "bytes"
        },
        {
          "name": "_output",
          "type": "bytes"
        },
        {
          "name": "steps",
          "type": "uint256"
        }
      ],
      "name": "claimComputation",
      "outputs": [],
      "payable": false,
      "stateMutability": "nonpayable",
      "type": "function"
    },
    {
      "constant": true,
      "inputs": [
        {
          "name": "step",
          "type": "uint256"
        },
        {
          "name": "preState",
          "type": "bytes"
        },
        {
          "name": "postState",
          "type": "bytes"
        },
        {
          "name": "proof",
          "type": "bytes"
        }
      ],
      "name": "verifyStep",
      "outputs": [
        {
          "name": "success",
          "type": "bool"
        }
      ],
      "payable": false,
      "stateMutability": "pure",
      "type": "function"
    },
    {
      "constant": false,
      "inputs": [
        {
          "name": "session",
          "type": "uint256"
        },
        {
          "name": "step",
          "type": "uint256"
        },
        {
          "name": "hash",
          "type": "bytes32"
        }
      ],
      "name": "respond",
      "outputs": [],
      "payable": false,
      "stateMutability": "nonpayable",
      "type": "function"
    },
    {
      "constant": true,
      "inputs": [
        {
          "name": "",
          "type": "uint256"
        }
      ],
      "name": "sessions",
      "outputs": [
        {
          "name": "id",
          "type": "uint256"
        },
        {
          "name": "claimant",
          "type": "address"
        },
        {
          "name": "challenger",
          "type": "address"
        },
        {
          "name": "input",
          "type": "bytes"
        },
        {
          "name": "output",
          "type": "bytes"
        },
        {
          "name": "lastClaimantMessage",
          "type": "uint256"
        },
        {
          "name": "lastChallengerMessage",
          "type": "uint256"
        },
        {
          "name": "lowStep",
          "type": "uint256"
        },
        {
          "name": "lowHash",
          "type": "bytes32"
        },
        {
          "name": "medStep",
          "type": "uint256"
        },
        {
          "name": "medHash",
          "type": "bytes32"
        },
        {
          "name": "highStep",
          "type": "uint256"
        },
        {
          "name": "highHash",
          "type": "bytes32"
        }
      ],
      "payable": false,
      "stateMutability": "view",
      "type": "function"
    },
    {
      "constant": false,
      "inputs": [
        {
          "name": "session",
          "type": "uint256"
        },
        {
          "name": "step",
          "type": "uint256"
        }
      ],
      "name": "query",
      "outputs": [],
      "payable": false,
      "stateMutability": "nonpayable",
      "type": "function"
    },
    {
      "anonymous": false,
      "inputs": [
        {
          "indexed": false,
          "name": "sessionId",
          "type": "uint256"
        }
      ],
      "name": "NewClaim",
      "type": "event"
    },
    {
      "anonymous": false,
      "inputs": [
        {
          "indexed": false,
          "name": "sessionId",
          "type": "uint256"
        }
      ],
      "name": "NewQuery",
      "type": "event"
    },
    {
      "anonymous": false,
      "inputs": [
        {
          "indexed": false,
          "name": "sessionId",
          "type": "uint256"
        }
      ],
      "name": "NewResponse",
      "type": "event"
    },
    {
      "anonymous": false,
      "inputs": [
        {
          "indexed": false,
          "name": "sessionId",
          "type": "uint256"
        }
      ],
      "name": "ChallengerConvicted",
      "type": "event"
    },
    {
      "anonymous": false,
      "inputs": [
        {
          "indexed": false,
          "name": "sessionId",
          "type": "uint256"
        }
      ],
      "name": "ClaimantConvicted",
      "type": "event"
    }
  ],
  "bytecode": "0x6060604052341561000f57600080fd5b61341a8061001e6000396000f300606060405260043610610083576000357c0100000000000000000000000000000000000000000000000000000000900463ffffffff16806308148f7a1461008857806324ddb58c146100ab5780633e92fa26146101975780634591a98014610240578063561117511461034457806383c4b7a31461037d578063af6682ab1461057c575b600080fd5b341561009357600080fd5b6100a960048080359060200190919050506105a8565b005b34156100b657600080fd5b610195600480803590602001909190803590602001908201803590602001908080601f0160208091040260200160405190810160405280939291908181526020018383808284378201915050505050509190803590602001908201803590602001908080601f0160208091040260200160405190810160405280939291908181526020018383808284378201915050505050509190803590602001908201803590602001908080601f01602080910402602001604051908101604052809392919081815260200183838082843782019150505050505091905050610687565b005b34156101a257600080fd5b61023e600480803590602001908201803590602001908080601f0160208091040260200160405190810160405280939291908181526020018383808284378201915050505050509190803590602001908201803590602001908080601f01602080910402602001604051908101604052809392919081815260200183838082843782019150505050505091908035906020019091905050610874565b005b341561024b57600080fd5b61032a600480803590602001909190803590602001908201803590602001908080601f0160208091040260200160405190810160405280939291908181526020018383808284378201915050505050509190803590602001908201803590602001908080601f0160208091040260200160405190810160405280939291908181526020018383808284378201915050505050509190803590602001908201803590602001908080601f01602080910402602001604051908101604052809392919081815260200183838082843782019150505050505091905050610bc5565b604051808215151515815260200191505060405180910390f35b341561034f57600080fd5b61037b600480803590602001909190803590602001909190803560001916906020019091905050610d45565b005b341561038857600080fd5b61039e6004808035906020019091905050610e80565b604051808e81526020018d73ffffffffffffffffffffffffffffffffffffffff1673ffffffffffffffffffffffffffffffffffffffff1681526020018c73ffffffffffffffffffffffffffffffffffffffff1673ffffffffffffffffffffffffffffffffffffffff16815260200180602001806020018b81526020018a815260200189815260200188600019166000191681526020018781526020018660001916600019168152602001858152602001846000191660001916815260200183810383528d8181546001816001161561010002031660029004815260200191508054600181600116156101000203166002900480156104dd5780601f106104b2576101008083540402835291602001916104dd565b820191906000526020600020905b8154815290600101906020018083116104c057829003601f168201915b505083810382528c8181546001816001161561010002031660029004815260200191508054600181600116156101000203166002900480156105605780601f1061053557610100808354040283529160200191610560565b820191906000526020600020905b81548152906001019060200180831161054357829003601f168201915b50509f5050505050505050505050505050505060405180910390f35b341561058757600080fd5b6105a66004808035906020019091908035906020019091905050610f33565b005b600080828154811015156105b857fe5b90600052602060002090600d0201905060008160010160009054906101000a900473ffffffffffffffffffffffffffffffffffffffff1673ffffffffffffffffffffffffffffffffffffffff161415151561061257600080fd5b806005015481600601541180156106305750610e1081600501540142115b156106435761063e8261124a565b610683565b806006015481600501541180156106615750610e1081600601540142115b156106745761066f8261128d565b610682565b6000151561068157600080fd5b5b5b5050565b60008460008181548110151561069957fe5b90600052602060002090600d020160010160009054906101000a900473ffffffffffffffffffffffffffffffffffffffff1673ffffffffffffffffffffffffffffffffffffffff163373ffffffffffffffffffffffffffffffffffffffff1614151561070457600080fd5b60008681548110151561071357fe5b90600052602060002090600d0201915081600b0154600183600701540114151561073c57600080fd5b816008015460001916856040518082805190602001908083835b60208310151561077b5780518252602082019150602081019050602083039250610756565b6001836020036101000a0380198251168184511680821785525050505050509050019150506040518091039020600019161415156107bd576107bc8661124a565b5b81600c015460001916846040518082805190602001908083835b6020831015156107fc57805182526020820191506020810190506020830392506107d7565b6001836020036101000a03801982511681845116808217855250505050505090500191505060405180910390206000191614151561083e5761083d8661124a565b5b61084f8283600701548787876112d0565b156108625761085d8661128d565b61086c565b61086b8661124a565b5b505050505050565b60028111151561088357600080fd5b6000805480600101828161089791906130f3565b91600052602060002090600d020160006101a06040519081016040528060008054905081526020013373ffffffffffffffffffffffffffffffffffffffff168152602001600073ffffffffffffffffffffffffffffffffffffffff16815260200187815260200186815260200142815260200142815260200160008152602001876040518082805190602001908083835b60208310151561094d5780518252602082019150602081019050602083039250610928565b6001836020036101000a0380198251168184511680821785525050505050509050019150506040518091039020600019168152602001600081526020016000600102600019168152602001858152602001866040518082805190602001908083835b6020831015156109d457805182526020820191506020810190506020830392506109af565b6001836020036101000a03801982511681845116808217855250505050505090500191505060405180910390206000191681525090919091506000820151816000015560208201518160010160006101000a81548173ffffffffffffffffffffffffffffffffffffffff021916908373ffffffffffffffffffffffffffffffffffffffff16021790555060408201518160020160006101000a81548173ffffffffffffffffffffffffffffffffffffffff021916908373ffffffffffffffffffffffffffffffffffffffff1602179055506060820151816003019080519060200190610ac1929190613125565b506080820151816004019080519060200190610ade929190613125565b5060a0820151816005015560c0820151816006015560e082015181600701556101008201518160080190600019169055610120820151816009015561014082015181600a019060001916905561016082015181600b015561018082015181600c0190600019169055505050610b766000600160008054905003815481101515610b6357fe5b90600052602060002090600d02016112e9565b1515610b8157600080fd5b7f02119b07214559f0c9a891b95f8f39f06f076d1af02f443aa8c024a8d4b669c56001600080549050036040518082815260200191505060405180910390a1505050565b6000610bcf6131a5565b6000610bd96131e0565b6000881415610c0657610beb8761131f565b9250610bff610bf9846114e6565b87611570565b9350610d3a565b610c0f87611649565b80945081935050508115610c265760009350610d3a565b610801881015610c9157610c39856116ea565b8090508260400181905281935050508115610c575760009350610d3a565b610c658360018a038361177a565b806020015115610c785760009350610d3a565b610c8a610c84846114e6565b87611570565b9350610d3a565b610801881415610d3557826040015160001916856040518082805190602001908083835b602083101515610cda5780518252602082019150602081019050602083039250610cb5565b6001836020036101000a038019825116818451168082178552505050505050905001915050604051809103902060001916141515610d1b5760009350610d3a565b610d2e610d2884876118c9565b87611570565b9350610d3a565b600093505b505050949350505050565b600083600081815481101515610d5757fe5b90600052602060002090600d020160010160009054906101000a900473ffffffffffffffffffffffffffffffffffffffff1673ffffffffffffffffffffffffffffffffffffffff163373ffffffffffffffffffffffffffffffffffffffff16141515610dc257600080fd5b600085815481101515610dd157fe5b90600052602060002090600d02019150816009015484141515610df357600080fd5b600060010282600a015460001916141515610e0d57600080fd5b600060010283600019161415610e2b57610e268561128d565b610e79565b8282600a0181600019169055504282600501819055507f53b55b3d6349be0707243ec0a2bc86efff3ab477b9aabf8a02d4e3dfdc450b7c856040518082815260200191505060405180910390a15b5050505050565b600081815481101515610e8f57fe5b90600052602060002090600d02016000915090508060000154908060010160009054906101000a900473ffffffffffffffffffffffffffffffffffffffff16908060020160009054906101000a900473ffffffffffffffffffffffffffffffffffffffff16908060030190806004019080600501549080600601549080600701549080600801549080600901549080600a01549080600b01549080600c015490508d565b60008260008082815481101515610f4657fe5b90600052602060002090600d0201905060008160020160009054906101000a900473ffffffffffffffffffffffffffffffffffffffff1673ffffffffffffffffffffffffffffffffffffffff161415610fe157338160020160006101000a81548173ffffffffffffffffffffffffffffffffffffffff021916908373ffffffffffffffffffffffffffffffffffffffff160217905550611040565b8060020160009054906101000a900473ffffffffffffffffffffffffffffffffffffffff1673ffffffffffffffffffffffffffffffffffffffff163373ffffffffffffffffffffffffffffffffffffffff1614151561103f57600080fd5b5b60008581548110151561104f57fe5b90600052602060002090600d02019250600060010283600a01546000191614158061107e575060008360090154145b151561108957600080fd5b8260070154841480156110a25750826009015460018501145b156110c95782600a015483600c0181600019169055506001840183600b0181905550611203565b8260090154841480156110e2575082600b015460018501145b156111065782600a0154836008018160001916905550838360070181905550611202565b82600701548411801561111c575082600b015484105b151561112757600080fd5b600083600901541480156111465750600060010283600a015460001916145b15611150576111e7565b600060010283600a0154600019161415151561116b57600080fd5b826009015484101561119a57826009015483600b018190555082600a015483600c0181600019169055506111e6565b8260090154841115156111ac57600080fd5b600060010283600a015460001916141515156111c757600080fd5b8260090154836007018190555082600a01548360080181600019169055505b5b838360090181905550600060010283600a0181600019169055505b5b4283600601819055507f890f4ee87afef7ca736ed90d4fa2de8a87fbe25414f176af1b6df419bc535a85856040518082815260200191505060405180910390a15050505050565b61125381611b17565b7f4d4a1ea29f6abf2bd16c5db7e1420215d94654cf958264c14b1e1b567e85c5c3816040518082815260200191505060405180910390a150565b61129681611b17565b7f3c4b9ce3b2cfa5b6eb4f2a53d150b531f501ad769b19dd31023a4bb5e9ed4d52816040518082815260200191505060405180910390a150565b60006112de85858585610bc5565b905095945050505050565b6000602082600401805460018160011615610100020316600290049050148015611318575061080282600b0154145b9050919050565b6113276131a5565b816040518082805190602001908083835b60208310151561135d5780518252602082019150602081019050602083039250611338565b6001836020036101000a0380198251168184511680821785525050505050509050019150506040518091039020816040019060001916908160001916815250506113a982836080611bf0565b81600001819052506113d1816000015160006004811015156113c757fe5b6020020151611d90565b816000015160006004811015156113e457fe5b60200201818152505061140d8160000151600160048110151561140357fe5b6020020151611d90565b8160000151600160048110151561142057fe5b6020020181815250506114498160000151600260048110151561143f57fe5b6020020151611d90565b8160000151600260048110151561145c57fe5b6020020181815250506114858160000151600360048110151561147b57fe5b6020020151611d90565b8160000151600360048110151561149857fe5b6020020181815250507fe82cea94884b1b895ea0742840a3b19249a723810fd1b04d8564d675b0a416f1600102816020019060001916908160001916815250506114e181611f40565b919050565b6114ee61320c565b6114f6613220565b60008060c06040518059106115085750595b9080825280601f01601f19166020018201604052509350846000015192508460200151915084604001519050600083015160208501526020830151604085015260408301516060850152606083015160808501528160a08501528060c0850152505050919050565b6000816040518082805190602001908083835b6020831015156115a85780518252602082019150602081019050602083039250611583565b6001836020036101000a038019825116818451168082178552505050505050905001915050604051809103902060001916836040518082805190602001908083835b60208310151561160f57805182526020820191506020810190506020830392506115ea565b6001836020036101000a03801982511681845116808217855250505050505090500191505060405180910390206000191614905092915050565b60006116536131a5565b61165b613220565b60008060c0865114151561167557600184945094506116e2565b836000015192506020860151600084015260408601516020840152606086015160408401526080860151606084015260a0860151915060c0860151905081846020019060001916908160001916815250508084604001906000191690816000191681525050600084945094505b505050915091565b60006116f4613248565b6000806020855181151561170457fe5b061415156117185760018292509250611774565b835190506020845181151561172957fe5b046040518059106117375750595b90808252806020026020018201604052509150602082016020850160005b83811015611770578082015181840152602081019050611755565b5050505b50915091565b60008060008060006108008710151561179257600080fd5b6104008710156117c6576117ac88888a6000015189611f43565b6117b9886000015161207e565b88600001819052506118bf565b6104007c0100000000000000000000000000000000000000000000000000000000896000015160026004811015156117fa57fe5b602002015181151561180857fe5b0481151561181257fe5b06945061182088868861213d565b93509350935093506118b6608060405190810160405280868b60000151600060048110151561184b57fe5b6020020151188152602001858b60000151600160048110151561186a57fe5b6020020151188152602001848b60000151600260048110151561188957fe5b6020020151188152602001838b6000015160036004811015156118a857fe5b60200201511881525061207e565b88600001819052505b5050505050505050565b6118d161320c565b6118d961320c565b6118e1613220565b6000856040015160001916856040518082805190602001908083835b60208310151561192257805182526020820191506020810190506020830392506118fd565b6001836020036101000a03801982511681845116808217855250505050505090500191505060405180910390206000191614151561195f57600080fd5b61197f8660000151600060048110151561197557fe5b6020020151611d90565b8660000151600060048110151561199257fe5b6020020181815250506119bb866000015160016004811015156119b157fe5b6020020151611d90565b866000015160016004811015156119ce57fe5b6020020181815250506119f7866000015160026004811015156119ed57fe5b6020020151611d90565b86600001516002600481101515611a0a57fe5b602002018181525050611a3386600001516003600481101515611a2957fe5b6020020151611d90565b86600001516003600481101515611a4657fe5b602002018181525050611a5c86600001516121f4565b9250611a6a85846020611bf0565b91506000826001600481101515611a7d57fe5b6020020151148015611aa257506000826002600481101515611a9b57fe5b6020020151145b8015611ac157506000826003600481101515611aba57fe5b6020020151145b1515611acc57600080fd5b6020604051805910611adb5750595b9080825280601f01601f19166020018201604052509350816000600481101515611b0157fe5b6020020151905080602085015250505092915050565b600081815481101515611b2657fe5b90600052602060002090600d02016000808201600090556001820160006101000a81549073ffffffffffffffffffffffffffffffffffffffff02191690556002820160006101000a81549073ffffffffffffffffffffffffffffffffffffffff0219169055600382016000611b9b919061325c565b600482016000611bab919061325c565b60058201600090556006820160009055600782016000905560088201600090556009820160009055600a820160009055600b820160009055600c820160009055505050565b611bf8613220565b611c0061320c565b60006004855101604051805910611c145750595b9080825280601f01601f19166020018201604052509150600090505b8451811015611cdd578481815181101515611c4757fe5b9060200101517f010000000000000000000000000000000000000000000000000000000000000090047f0100000000000000000000000000000000000000000000000000000000000000028282815181101515611ca057fe5b9060200101907effffffffffffffffffffffffffffffffffffffffffffffffffffffffffffff1916908160001a9053508080600101915050611c30565b600090505b83602082021015611d8757600181017f010000000000000000000000000000000000000000000000000000000000000002826001845103815181101515611d2557fe5b9060200101907effffffffffffffffffffffffffffffffffffffffffffffffffffffffffffff1916908160001a905350611d5f868361229a565b600190048382600481101515611d7157fe5b6020020181815250508080600101915050611ce2565b50509392505050565b60006001611da9600184811515611da357fe5b0461261e565b02640100000000611dc964010000000085811515611dc357fe5b0461261e565b0268010000000000000000611df16801000000000000000086811515611deb57fe5b0461261e565b026c01000000000000000000000000611e216c0100000000000000000000000087811515611e1b57fe5b0461261e565b02700100000000000000000000000000000000611e5970010000000000000000000000000000000088811515611e5357fe5b0461261e565b0274010000000000000000000000000000000000000000611e997401000000000000000000000000000000000000000089811515611e9357fe5b0461261e565b027801000000000000000000000000000000000000000000000000611ee178010000000000000000000000000000000000000000000000008a811515611edb57fe5b0461261e565b027c0100000000000000000000000000000000000000000000000000000000611f317c01000000000000000000000000000000000000000000000000000000008b811515611f2b57fe5b0461261e565b02010101010101019050919050565b50565b611f4e848483612666565b50816000600481101515611f5e57fe5b602002015160010281604001516000815181101515611f7957fe5b906020019060200201906000191690816000191681525050816001600481101515611fa057fe5b602002015160010281604001516001815181101515611fbb57fe5b906020019060200201906000191690816000191681525050816002600481101515611fe257fe5b602002015160010281604001516002815181101515611ffd57fe5b90602001906020020190600019169081600019168152505081600360048110151561202457fe5b60200201516001028160400151600381518110151561203f57fe5b9060200190602002019060001916908160001916815250506120658160400151846126e9565b8460200190600019169081600019168152505050505050565b612086613220565b60008060008085600060048110151561209b57fe5b60200201518660016004811015156120af57fe5b60200201518760026004811015156120c357fe5b60200201518860036004811015156120d757fe5b602002015193509350935093506120f2828518828518612882565b8094508195505050612108828518828518612882565b809250819350505060806040519081016040528085815260200184815260200183815260200182815250945050505050919050565b6000806000806104008610151561215357600080fd5b61215e878787612666565b508460400151600081518110151561217257fe5b906020019060200201516001900493508460400151600181518110151561219557fe5b90602001906020020151600190049250846040015160028151811015156121b857fe5b90602001906020020151600190049150846040015160038151811015156121db57fe5b9060200190602002015160019004905093509350935093565b6121fc61320c565b6000608060405180591061220d5750595b9080825280601f01601f1916602001820160405250915082600060048110151561223357fe5b6020020151905080602083015282600160048110151561224f57fe5b6020020151905080604083015282600260048110151561226b57fe5b6020020151905080606083015282600360048110151561228757fe5b6020020151905080608083015250919050565b600080600080600080604088511115612340576002886000604051602001526040518082805190602001908083835b6020831015156122ee57805182526020820191506020810190506020830392506122c9565b6001836020036101000a03801982511681845116808217855250505050505090500191505060206040518083038160008661646e5a03f1151561233057600080fd5b50506040518051905094506124ab565b600092505b8751831080156123555750602083105b156123f55782601f0360080260020a888481518110151561237257fe5b9060200101517f010000000000000000000000000000000000000000000000000000000000000090047f0100000000000000000000000000000000000000000000000000000000000000027f0100000000000000000000000000000000000000000000000000000000000000900402600102851794508280600101935050612345565b602092505b87518310801561240a5750604083105b156124aa5782603f0360080260020a888481518110151561242757fe5b9060200101517f010000000000000000000000000000000000000000000000000000000000000090047f0100000000000000000000000000000000000000000000000000000000000000027f01000000000000000000000000000000000000000000000000000000000000009004026001028417935082806001019350506123fa565b5b7f363636363636363636363636363636363636363636363636363636363636363660010291507f5c5c5c5c5c5c5c5c5c5c5c5c5c5c5c5c5c5c5c5c5c5c5c5c5c5c5c5c5c5c5c5c6001029050600285821885831860028886188887188c600060405160200152604051808460001916600019168152602001836000191660001916815260200182805190602001908083835b602083101515612562578051825260208201915060208101905060208303925061253d565b6001836020036101000a038019825116818451168082178552505050505050905001935050505060206040518083038160008661646e5a03f115156125a657600080fd5b50506040518051905060006040516020015260405180846000191660001916815260200183600019166000191681526020018260001916600019168152602001935050505060206040518083038160008661646e5a03f1151561260857600080fd5b5050604051805190509550505050505092915050565b6000630100000063ff000000831681151561263557fe5b0461010062ff0000841681151561264857fe5b0461010061ff00851602630100000060ff8616020101019050919050565b60006104008310151561267857600080fd5b600e8260400151511415156126a1576001826020019015159081151581525050600090506126e2565b8360200151600019166126b88360400151856126e9565b600019161415156126dd576001826020019015159081151581525050600090506126e2565b600190505b9392505050565b60008060008460008151811015156126fd57fe5b9060200190602002015185600181518110151561271657fe5b9060200190602002015186600281518110151561272f57fe5b9060200190602002015187600381518110151561274857fe5b9060200190602002015160405180856000191660001916815260200184600019166000191681526020018360001916600019168152602001826000191660001916815260200194505050505060405180910390209150600090505b600a8110156128775760006002858115156127ba57fe5b061415612810578185826004018151811015156127d357fe5b906020019060200201516040518083600019166000191681526020018260001916600019168152602001925050506040518091039020915061285b565b848160040181518110151561282157fe5b9060200190602002015182604051808360001916600019168152602001826000191660001916815260200192505050604051809103902091505b60028481151561286757fe5b04935080806001019150506127a3565b819250505092915050565b6000806000806000869250859150600090505b60088110156128cd576128a88383612942565b80935081945050506128ba8383612d02565b8093508194505050600281019050612895565b600090505b6008811015612938576128ff6128e88483613008565b6128f28984613008565b0163ffffffff168261302a565b851794506129276129108383613008565b61291a8884613008565b0163ffffffff168261302a565b8417935080806001019150506128d2565b5050509250929050565b6000806000806000806129d77c01000000000000000000000000000000000000000000000000000000008981151561297657fe5b046c010000000000000000000000008a81151561298f57fe5b047c01000000000000000000000000000000000000000000000000000000008a8115156129b857fe5b046c010000000000000000000000008b8115156129d157fe5b04613043565b93509350935093506c010000000000000000000000008363ffffffff16027c01000000000000000000000000000000000000000000000000000000008563ffffffff16021795506c010000000000000000000000008163ffffffff16027c01000000000000000000000000000000000000000000000000000000008363ffffffff1602179450612ad96801000000000000000089811515612a7457fe5b04780100000000000000000000000000000000000000000000000089811515612a9957fe5b04680100000000000000008a811515612aae57fe5b0478010000000000000000000000000000000000000000000000008c811515612ad357fe5b04613043565b8094508195508296508397505050505078010000000000000000000000000000000000000000000000008163ffffffff1602680100000000000000008563ffffffff16021786179550680100000000000000008263ffffffff160278010000000000000000000000000000000000000000000000008463ffffffff16021785179450612bc77401000000000000000000000000000000000000000088811515612b7e57fe5b0464010000000089811515612b8f57fe5b04740100000000000000000000000000000000000000008b811515612bb057fe5b046401000000008c811515612bc157fe5b04613043565b809450819550829650839750505050506401000000008163ffffffff1602740100000000000000000000000000000000000000008363ffffffff160217861795506401000000008363ffffffff1602740100000000000000000000000000000000000000008563ffffffff16021785179450612c95600188811515612c4857fe5b047001000000000000000000000000000000008a811515612c6557fe5b0460018b811515612c7257fe5b047001000000000000000000000000000000008b811515612c8f57fe5b04613043565b8094508195508296508397505050505060018263ffffffff16027001000000000000000000000000000000008463ffffffff160217861795507001000000000000000000000000000000008163ffffffff160260018563ffffffff16021785179450505050509250929050565b600080600080600080612d9f7c010000000000000000000000000000000000000000000000000000000089811515612d3657fe5b0478010000000000000000000000000000000000000000000000008a811515612d5b57fe5b04740100000000000000000000000000000000000000008b811515612d7c57fe5b047001000000000000000000000000000000008c811515612d9957fe5b04613043565b93509350935093508063ffffffff166401000000008363ffffffff166401000000008663ffffffff166401000000008963ffffffff160217021702179550612e316801000000000000000089811515612df457fe5b046401000000008a811515612e0557fe5b0460018b811515612e1257fe5b046c010000000000000000000000008c811515612e2b57fe5b04613043565b809750819450829550839650505050508063ffffffff166401000000008363ffffffff166401000000008663ffffffff166401000000008963ffffffff166401000000008d02170217021702179550612f147401000000000000000000000000000000000000000088811515612ea357fe5b0470010000000000000000000000000000000089811515612ec057fe5b047c01000000000000000000000000000000000000000000000000000000008a811515612ee957fe5b0478010000000000000000000000000000000000000000000000008b811515612f0e57fe5b04613043565b809650819750829450839550505050508063ffffffff166401000000008363ffffffff166401000000008663ffffffff166401000000008963ffffffff160217021702179450612fae600188811515612f6957fe5b046c0100000000000000000000000089811515612f8257fe5b04680100000000000000008a811515612f9757fe5b046401000000008b811515612fa857fe5b04613043565b809550819650829750839450505050508063ffffffff166401000000008363ffffffff166401000000008663ffffffff166401000000008963ffffffff166401000000008c02170217021702179450505050509250929050565b60006020808302610100030360020a8381151561302157fe5b04905092915050565b60006020808302610100030360020a8302905092915050565b6000806000806000858901905063020000008163ffffffff1681151561306557fe5b046080820217881897508888019050628000008163ffffffff1681151561308857fe5b04610200820217871896508787019050620800008163ffffffff168115156130ac57fe5b046120008202178618955086860190506140008163ffffffff168115156130cf57fe5b04620400008202178918985088888888945094509450945050945094509450949050565b81548183558181151161312057600d0281600d02836000526020600020918201910161311f91906132a4565b5b505050565b828054600181600116156101000203166002900490600052602060002090601f016020900481019282601f1061316657805160ff1916838001178555613194565b82800160010185558215613194579182015b82811115613193578251825591602001919060010190613178565b5b5090506131a19190613379565b5090565b60e0604051908101604052806131b961339e565b815260200160008019168152602001600080191681526020016131da6133c6565b81525090565b6060604051908101604052806000151581526020016000151581526020016132066133da565b81525090565b602060405190810160405280600081525090565b6080604051908101604052806004905b60008152602001906001900390816132305790505090565b602060405190810160405280600081525090565b50805460018160011615610100020316600290046000825580601f1061328257506132a1565b601f0160209004906000526020600020908101906132a09190613379565b5b50565b61337691905b80821115613372576000808201600090556001820160006101000a81549073ffffffffffffffffffffffffffffffffffffffff02191690556002820160006101000a81549073ffffffffffffffffffffffffffffffffffffffff0219169055600382016000613319919061325c565b600482016000613329919061325c565b60058201600090556006820160009055600782016000905560088201600090556009820160009055600a820160009055600b820160009055600c82016000905550600d016132aa565b5090565b90565b61339b91905b8082111561339757600081600090555060010161337f565b5090565b90565b6080604051908101604052806004905b60008152602001906001900390816133ae5790505090565b602060405190810160405280600081525090565b6020604051908101604052806000815250905600a165627a7a7230582098c840ae489596582525c5a2809fa95ad2148db1a73488605f295d524f5594390029",
  "source": "pragma solidity ^0.4.0;\n\nimport {ScryptFramework} from \"./scryptFramework.sol\";\nimport {Verifier} from \"./verify.sol\";\nimport {ClaimManager} from \"./claimManager.sol\";\n\n/**\n* @title\n* @author Christian Reitwiessner\n*/\ncontract ScryptVerifier is ScryptFramework, Verifier {\n\n    modifier onlyBy(address _account) {\n        require(msg.sender == _account);\n        _;\n    }\n\n    function isInitiallyValid(VerificationSession storage session) internal returns (bool) {\n        return session.output.length == 32 && session.highStep == 2050;\n    }\n    function performStepVerificationSpecific(VerificationSession storage, uint step, bytes preState, bytes postState, bytes proof) internal returns (bool) {\n        return verifyStep(step, preState, postState, proof);\n    }\n\n    /**\n    * @dev verifies a step\n    *\n    * @param step the index of the step to verify\n    * @param preState the previous state's serialized State struct instance\n    * @param postState the next step's state's serialized State struct instance\n    * @param proof the merkle proof\n    *\n    * @return returns true on success\n    */\n    function verifyStep(uint step, bytes preState, bytes postState, bytes proof) pure public returns (bool success) {\n        State memory state;\n        if (step == 0) {\n            // pre-state is input\n            state = inputToState(preState);\n            return equal(encodeState(state), postState);\n        }\n        bool error;\n        (error, state) = decodeState(preState);\n        if (error) return false;\n\n        if (step < 2049) {\n            Proofs memory proofs;\n            (error, proofs.proof) = toArray(proof);\n            if (error) return false;\n\n            runStep(state, step - 1, proofs);\n            if (proofs.verificationError) return false;\n\n            return equal(encodeState(state), postState);\n        } else if (step == 2049) {\n            if (keccak256(proof) != state.inputHash) return false;\n            return equal(finalStateToOutput(state, proof), postState);\n        } else {\n            return false;\n        }\n    }\n\n    function initMemory(State memory) pure internal {\n    }\n\n    /**\n    * @dev extracts the read result from the proof and verifies the proof against the memory root hash\n    *\n    * @param state the State struct instance\n    * @param index the offset\n    * @param proofs the proofs\n    *\n    * @return returns the read result\n    */\n    function readMemory(State memory state, uint index, Proofs memory proofs) pure internal returns (uint a, uint b, uint c, uint d) {\n        require(index < 1024);\n\n        preCheckProof(state, index, proofs);\n\n        // Extract read result from proof\n        a = uint(proofs.proof[0]);\n        b = uint(proofs.proof[1]);\n        c = uint(proofs.proof[2]);\n        d = uint(proofs.proof[3]);\n    }\n\n    /**\n    * @dev extract the write result from the proof and verify the proof against the memory root hash\n    *\n    * @param state the state struct\n    * @param index the index of fullMemory at which to write\n    * @param values the values to write\n    * @param proofs the write proofs\n    *\n    * @return \n    */\n    function writeMemory(State memory state, uint index, uint[4] values, Proofs memory proofs) pure internal {\n        preCheckProof(state, index, proofs);\n\n        proofs.proof[0] = bytes32(values[0]);\n        proofs.proof[1] = bytes32(values[1]);\n        proofs.proof[2] = bytes32(values[2]);\n        proofs.proof[3] = bytes32(values[3]);\n\n        // Compute the post-hash.\n        state.memoryHash = executeProof(proofs.proof, index);\n    }\n\n    /**\n    * @dev \n    *\n    * @param state the state vars\n    * @param index the index of fullMemory\n    * @param proofs the merkle proofs\n    *\n    * @return return whether the verification passed.\n    */\n    function preCheckProof(State memory state, uint index, Proofs memory proofs) pure internal returns (bool) {\n        require(index < 1024);\n        if (proofs.proof.length != 14) {\n            proofs.verificationError = true;\n            return false;\n        }\n        // Check the pre-hash.\n        if (executeProof(proofs.proof, index) != state.memoryHash) {\n            proofs.verificationError = true;\n            return false;\n        }\n        return true;\n    }\n\n    /**\n    * @dev \n    *\n    * @param proof something\n    * @param index something\n    *\n    * @return \n    */\n    function executeProof(bytes32[] proof, uint index) pure internal returns (bytes32) {\n        bytes32 h = keccak256(proof[0], proof[1], proof[2], proof[3]);\n        for (uint step = 0; step < 10; step++) {\n            if (index % 2 == 0) {\n                h = keccak256(h, proof[4 + step]);\n            } else {\n                h = keccak256(proof[4 + step], h);\n            }\n            index /= 2;\n        }\n        return h;\n    }\n}\n",
  "sourcePath": "/Users/sinahab/dev/truebit/sinahab/scrypt-interactive/contracts/scryptVerifier.sol",
  "compiler": {
    "name": "solc",
    "version": "0.4.18+commit.9cf6e910.Emscripten.clang"
  },
  "schemaVersion": "1.0.1",
  "updatedAt": "2017-11-19T18:27:10.360Z"
}